{
  "abi": [
    {
      "inputs": [
        {
          "internalType": "uint256",
          "name": "minDelay",
          "type": "uint256"
        },
        {
          "internalType": "address[]",
          "name": "proposers",
          "type": "address[]"
        },
        {
          "internalType": "address[]",
          "name": "executors",
          "type": "address[]"
        }
      ],
      "stateMutability": "nonpayable",
      "type": "constructor"
    },
    {
      "anonymous": false,
      "inputs": [
        {
          "indexed": true,
          "internalType": "bytes32",
          "name": "id",
          "type": "bytes32"
        },
        {
          "indexed": true,
          "internalType": "uint256",
          "name": "index",
          "type": "uint256"
        },
        {
          "indexed": false,
          "internalType": "address",
          "name": "target",
          "type": "address"
        },
        {
          "indexed": false,
          "internalType": "uint256",
          "name": "value",
          "type": "uint256"
        },
        {
          "indexed": false,
          "internalType": "bytes",
          "name": "data",
          "type": "bytes"
        }
      ],
      "name": "CallExecuted",
      "type": "event"
    },
    {
      "anonymous": false,
      "inputs": [
        {
          "indexed": true,
          "internalType": "bytes32",
          "name": "id",
          "type": "bytes32"
        },
        {
          "indexed": true,
          "internalType": "uint256",
          "name": "index",
          "type": "uint256"
        },
        {
          "indexed": false,
          "internalType": "address",
          "name": "target",
          "type": "address"
        },
        {
          "indexed": false,
          "internalType": "uint256",
          "name": "value",
          "type": "uint256"
        },
        {
          "indexed": false,
          "internalType": "bytes",
          "name": "data",
          "type": "bytes"
        },
        {
          "indexed": false,
          "internalType": "bytes32",
          "name": "predecessor",
          "type": "bytes32"
        },
        {
          "indexed": false,
          "internalType": "uint256",
          "name": "delay",
          "type": "uint256"
        }
      ],
      "name": "CallScheduled",
      "type": "event"
    },
    {
      "anonymous": false,
      "inputs": [
        {
          "indexed": true,
          "internalType": "bytes32",
          "name": "id",
          "type": "bytes32"
        }
      ],
      "name": "Cancelled",
      "type": "event"
    },
    {
      "anonymous": false,
      "inputs": [
        {
          "indexed": false,
          "internalType": "uint256",
          "name": "oldDuration",
          "type": "uint256"
        },
        {
          "indexed": false,
          "internalType": "uint256",
          "name": "newDuration",
          "type": "uint256"
        }
      ],
      "name": "MinDelayChange",
      "type": "event"
    },
    {
      "anonymous": false,
      "inputs": [
        {
          "indexed": true,
          "internalType": "bytes32",
          "name": "role",
          "type": "bytes32"
        },
        {
          "indexed": true,
          "internalType": "bytes32",
          "name": "previousAdminRole",
          "type": "bytes32"
        },
        {
          "indexed": true,
          "internalType": "bytes32",
          "name": "newAdminRole",
          "type": "bytes32"
        }
      ],
      "name": "RoleAdminChanged",
      "type": "event"
    },
    {
      "anonymous": false,
      "inputs": [
        {
          "indexed": true,
          "internalType": "bytes32",
          "name": "role",
          "type": "bytes32"
        },
        {
          "indexed": true,
          "internalType": "address",
          "name": "account",
          "type": "address"
        },
        {
          "indexed": true,
          "internalType": "address",
          "name": "sender",
          "type": "address"
        }
      ],
      "name": "RoleGranted",
      "type": "event"
    },
    {
      "anonymous": false,
      "inputs": [
        {
          "indexed": true,
          "internalType": "bytes32",
          "name": "role",
          "type": "bytes32"
        },
        {
          "indexed": true,
          "internalType": "address",
          "name": "account",
          "type": "address"
        },
        {
          "indexed": true,
          "internalType": "address",
          "name": "sender",
          "type": "address"
        }
      ],
      "name": "RoleRevoked",
      "type": "event"
    },
    {
      "inputs": [],
      "name": "DEFAULT_ADMIN_ROLE",
      "outputs": [
        {
          "internalType": "bytes32",
          "name": "",
          "type": "bytes32"
        }
      ],
      "stateMutability": "view",
      "type": "function"
    },
    {
      "inputs": [],
      "name": "EXECUTOR_ROLE",
      "outputs": [
        {
          "internalType": "bytes32",
          "name": "",
          "type": "bytes32"
        }
      ],
      "stateMutability": "view",
      "type": "function"
    },
    {
      "inputs": [],
      "name": "PROPOSER_ROLE",
      "outputs": [
        {
          "internalType": "bytes32",
          "name": "",
          "type": "bytes32"
        }
      ],
      "stateMutability": "view",
      "type": "function"
    },
    {
      "inputs": [],
      "name": "TIMELOCK_ADMIN_ROLE",
      "outputs": [
        {
          "internalType": "bytes32",
          "name": "",
          "type": "bytes32"
        }
      ],
      "stateMutability": "view",
      "type": "function"
    },
    {
      "inputs": [
        {
          "internalType": "bytes32",
          "name": "id",
          "type": "bytes32"
        }
      ],
      "name": "cancel",
      "outputs": [],
      "stateMutability": "nonpayable",
      "type": "function"
    },
    {
      "inputs": [
        {
          "internalType": "address",
          "name": "target",
          "type": "address"
        },
        {
          "internalType": "uint256",
          "name": "value",
          "type": "uint256"
        },
        {
          "internalType": "bytes",
          "name": "data",
          "type": "bytes"
        },
        {
          "internalType": "bytes32",
          "name": "predecessor",
          "type": "bytes32"
        },
        {
          "internalType": "bytes32",
          "name": "salt",
          "type": "bytes32"
        }
      ],
      "name": "execute",
      "outputs": [],
      "stateMutability": "payable",
      "type": "function"
    },
    {
      "inputs": [
        {
          "internalType": "address[]",
          "name": "targets",
          "type": "address[]"
        },
        {
          "internalType": "uint256[]",
          "name": "values",
          "type": "uint256[]"
        },
        {
          "internalType": "bytes[]",
          "name": "datas",
          "type": "bytes[]"
        },
        {
          "internalType": "bytes32",
          "name": "predecessor",
          "type": "bytes32"
        },
        {
          "internalType": "bytes32",
          "name": "salt",
          "type": "bytes32"
        }
      ],
      "name": "executeBatch",
      "outputs": [],
      "stateMutability": "payable",
      "type": "function"
    },
    {
      "inputs": [],
      "name": "getMinDelay",
      "outputs": [
        {
          "internalType": "uint256",
          "name": "duration",
          "type": "uint256"
        }
      ],
      "stateMutability": "view",
      "type": "function"
    },
    {
      "inputs": [
        {
          "internalType": "bytes32",
          "name": "role",
          "type": "bytes32"
        }
      ],
      "name": "getRoleAdmin",
      "outputs": [
        {
          "internalType": "bytes32",
          "name": "",
          "type": "bytes32"
        }
      ],
      "stateMutability": "view",
      "type": "function"
    },
    {
      "inputs": [
        {
          "internalType": "bytes32",
          "name": "id",
          "type": "bytes32"
        }
      ],
      "name": "getTimestamp",
      "outputs": [
        {
          "internalType": "uint256",
          "name": "timestamp",
          "type": "uint256"
        }
      ],
      "stateMutability": "view",
      "type": "function"
    },
    {
      "inputs": [
        {
          "internalType": "bytes32",
          "name": "role",
          "type": "bytes32"
        },
        {
          "internalType": "address",
          "name": "account",
          "type": "address"
        }
      ],
      "name": "grantRole",
      "outputs": [],
      "stateMutability": "nonpayable",
      "type": "function"
    },
    {
      "inputs": [
        {
          "internalType": "bytes32",
          "name": "role",
          "type": "bytes32"
        },
        {
          "internalType": "address",
          "name": "account",
          "type": "address"
        }
      ],
      "name": "hasRole",
      "outputs": [
        {
          "internalType": "bool",
          "name": "",
          "type": "bool"
        }
      ],
      "stateMutability": "view",
      "type": "function"
    },
    {
      "inputs": [
        {
          "internalType": "address",
          "name": "target",
          "type": "address"
        },
        {
          "internalType": "uint256",
          "name": "value",
          "type": "uint256"
        },
        {
          "internalType": "bytes",
          "name": "data",
          "type": "bytes"
        },
        {
          "internalType": "bytes32",
          "name": "predecessor",
          "type": "bytes32"
        },
        {
          "internalType": "bytes32",
          "name": "salt",
          "type": "bytes32"
        }
      ],
      "name": "hashOperation",
      "outputs": [
        {
          "internalType": "bytes32",
          "name": "hash",
          "type": "bytes32"
        }
      ],
      "stateMutability": "pure",
      "type": "function"
    },
    {
      "inputs": [
        {
          "internalType": "address[]",
          "name": "targets",
          "type": "address[]"
        },
        {
          "internalType": "uint256[]",
          "name": "values",
          "type": "uint256[]"
        },
        {
          "internalType": "bytes[]",
          "name": "datas",
          "type": "bytes[]"
        },
        {
          "internalType": "bytes32",
          "name": "predecessor",
          "type": "bytes32"
        },
        {
          "internalType": "bytes32",
          "name": "salt",
          "type": "bytes32"
        }
      ],
      "name": "hashOperationBatch",
      "outputs": [
        {
          "internalType": "bytes32",
          "name": "hash",
          "type": "bytes32"
        }
      ],
      "stateMutability": "pure",
      "type": "function"
    },
    {
      "inputs": [
        {
          "internalType": "bytes32",
          "name": "id",
          "type": "bytes32"
        }
      ],
      "name": "isOperation",
      "outputs": [
        {
          "internalType": "bool",
          "name": "pending",
          "type": "bool"
        }
      ],
      "stateMutability": "view",
      "type": "function"
    },
    {
      "inputs": [
        {
          "internalType": "bytes32",
          "name": "id",
          "type": "bytes32"
        }
      ],
      "name": "isOperationDone",
      "outputs": [
        {
          "internalType": "bool",
          "name": "done",
          "type": "bool"
        }
      ],
      "stateMutability": "view",
      "type": "function"
    },
    {
      "inputs": [
        {
          "internalType": "bytes32",
          "name": "id",
          "type": "bytes32"
        }
      ],
      "name": "isOperationPending",
      "outputs": [
        {
          "internalType": "bool",
          "name": "pending",
          "type": "bool"
        }
      ],
      "stateMutability": "view",
      "type": "function"
    },
    {
      "inputs": [
        {
          "internalType": "bytes32",
          "name": "id",
          "type": "bytes32"
        }
      ],
      "name": "isOperationReady",
      "outputs": [
        {
          "internalType": "bool",
          "name": "ready",
          "type": "bool"
        }
      ],
      "stateMutability": "view",
      "type": "function"
    },
    {
      "inputs": [
        {
          "internalType": "bytes32",
          "name": "role",
          "type": "bytes32"
        },
        {
          "internalType": "address",
          "name": "account",
          "type": "address"
        }
      ],
      "name": "renounceRole",
      "outputs": [],
      "stateMutability": "nonpayable",
      "type": "function"
    },
    {
      "inputs": [
        {
          "internalType": "bytes32",
          "name": "role",
          "type": "bytes32"
        },
        {
          "internalType": "address",
          "name": "account",
          "type": "address"
        }
      ],
      "name": "revokeRole",
      "outputs": [],
      "stateMutability": "nonpayable",
      "type": "function"
    },
    {
      "inputs": [
        {
          "internalType": "address",
          "name": "target",
          "type": "address"
        },
        {
          "internalType": "uint256",
          "name": "value",
          "type": "uint256"
        },
        {
          "internalType": "bytes",
          "name": "data",
          "type": "bytes"
        },
        {
          "internalType": "bytes32",
          "name": "predecessor",
          "type": "bytes32"
        },
        {
          "internalType": "bytes32",
          "name": "salt",
          "type": "bytes32"
        },
        {
          "internalType": "uint256",
          "name": "delay",
          "type": "uint256"
        }
      ],
      "name": "schedule",
      "outputs": [],
      "stateMutability": "nonpayable",
      "type": "function"
    },
    {
      "inputs": [
        {
          "internalType": "address[]",
          "name": "targets",
          "type": "address[]"
        },
        {
          "internalType": "uint256[]",
          "name": "values",
          "type": "uint256[]"
        },
        {
          "internalType": "bytes[]",
          "name": "datas",
          "type": "bytes[]"
        },
        {
          "internalType": "bytes32",
          "name": "predecessor",
          "type": "bytes32"
        },
        {
          "internalType": "bytes32",
          "name": "salt",
          "type": "bytes32"
        },
        {
          "internalType": "uint256",
          "name": "delay",
          "type": "uint256"
        }
      ],
      "name": "scheduleBatch",
      "outputs": [],
      "stateMutability": "nonpayable",
      "type": "function"
    },
    {
      "inputs": [
        {
          "internalType": "bytes4",
          "name": "interfaceId",
          "type": "bytes4"
        }
      ],
      "name": "supportsInterface",
      "outputs": [
        {
          "internalType": "bool",
          "name": "",
          "type": "bool"
        }
      ],
      "stateMutability": "view",
      "type": "function"
    },
    {
      "inputs": [
        {
          "internalType": "uint256",
          "name": "newDelay",
          "type": "uint256"
        }
      ],
      "name": "updateDelay",
      "outputs": [],
      "stateMutability": "nonpayable",
      "type": "function"
    },
    {
      "stateMutability": "payable",
      "type": "receive"
    }
  ],
  "bytecode": "60806040523480156200001157600080fd5b5060405162001e1938038062001e198339810160408190526200003491620003a4565b6200004f60008051602062001db983398151915280620001c9565b6200007960008051602062001dd983398151915260008051602062001db9833981519152620001c9565b620000a360008051602062001df983398151915260008051602062001db9833981519152620001c9565b620000be60008051602062001db98339815191523362000214565b620000d960008051602062001db98339815191523062000214565b60005b825181101562000136576200012360008051602062001dd98339815191528483815181106200010f576200010f62000418565b60200260200101516200021460201b60201c565b6200012e816200042e565b9050620000dc565b5060005b815181101562000180576200016d60008051602062001df98339815191528383815181106200010f576200010f62000418565b62000178816200042e565b90506200013a565b5060028390556040805160008152602081018590527f11c24f4ead16507c69ac467fbd5e4eed5fb5c699626d2cc6d66421df253886d5910160405180910390a150505062000456565b600082815260208190526040808220600101805490849055905190918391839186917fbd79b86ffe0ab8e8776151514217cd7cacd52c909f66475c3af44e129f0b00ff9190a4505050565b62000220828262000224565b5050565b6000828152602081815260408083206001600160a01b038516845290915290205460ff1662000220576000828152602081815260408083206001600160a01b03851684529091529020805460ff19166001179055620002803390565b6001600160a01b0316816001600160a01b0316837f2f8788117e7eff1d82e926ec794901d17c78024a50270940304540a733656f0d60405160405180910390a45050565b634e487b7160e01b600052604160045260246000fd5b80516001600160a01b0381168114620002f257600080fd5b919050565b600082601f8301126200030957600080fd5b815160206001600160401b0380831115620003285762000328620002c4565b8260051b604051601f19603f83011681018181108482111715620003505762000350620002c4565b6040529384528581018301938381019250878511156200036f57600080fd5b83870191505b8482101562000399576200038982620002da565b8352918301919083019062000375565b979650505050505050565b600080600060608486031215620003ba57600080fd5b835160208501519093506001600160401b0380821115620003da57600080fd5b620003e887838801620002f7565b93506040860151915080821115620003ff57600080fd5b506200040e86828701620002f7565b9150509250925092565b634e487b7160e01b600052603260045260246000fd5b6000600182016200044f57634e487b7160e01b600052601160045260246000fd5b5060010190565b61195380620004666000396000f3fe60806040526004361061014f5760003560e01c806364d62353116100b6578063b1c5f4271161006f578063b1c5f427146103f3578063c4d252f514610413578063d45c443514610433578063d547741f14610460578063e38335e514610480578063f27a0c921461049357600080fd5b806364d623531461033c5780638065657f1461035c5780638f2a0bb01461037c5780638f61f4f51461039c57806391d14854146103be578063a217fddf146103de57600080fd5b8063248a9ca311610108578063248a9ca31461025b5780632ab0f5291461028b5780632f2ff15d146102bc57806331d50750146102dc57806336568abe146102fc578063584b153e1461031c57600080fd5b806301d5062a1461015b57806301ffc9a71461017d57806307bd0265146101b25780630d3cf6fc146101f4578063134008d31461022857806313bc9f201461023b57600080fd5b3661015657005b600080fd5b34801561016757600080fd5b5061017b6101763660046111b5565b6104a8565b005b34801561018957600080fd5b5061019d61019836600461122a565b61052c565b60405190151581526020015b60405180910390f35b3480156101be57600080fd5b506101e67fd8aa0f3194971a2a116679f7c2090f6939c8d4e01a2a8d7e41d55e5351469e6381565b6040519081526020016101a9565b34801561020057600080fd5b506101e67f5f58e3a2316349923ce3780f8d587db2d72378aed66a8261c916544fa6846ca581565b61017b610236366004611254565b610563565b34801561024757600080fd5b5061019d6102563660046112c0565b6105db565b34801561026757600080fd5b506101e66102763660046112c0565b60009081526020819052604090206001015490565b34801561029757600080fd5b5061019d6102a63660046112c0565b6000908152600160208190526040909120541490565b3480156102c857600080fd5b5061017b6102d73660046112d9565b610601565b3480156102e857600080fd5b5061019d6102f73660046112c0565b61062c565b34801561030857600080fd5b5061017b6103173660046112d9565b610645565b34801561032857600080fd5b5061019d6103373660046112c0565b6106c8565b34801561034857600080fd5b5061017b6103573660046112c0565b6106de565b34801561036857600080fd5b506101e6610377366004611254565b610782565b34801561038857600080fd5b5061017b61039736600461134a565b6107c1565b3480156103a857600080fd5b506101e66000805160206118fe83398151915281565b3480156103ca57600080fd5b5061019d6103d93660046112d9565b610902565b3480156103ea57600080fd5b506101e6600081565b3480156103ff57600080fd5b506101e661040e3660046113fc565b61092b565b34801561041f57600080fd5b5061017b61042e3660046112c0565b610970565b34801561043f57600080fd5b506101e661044e3660046112c0565b60009081526001602052604090205490565b34801561046c57600080fd5b5061017b61047b3660046112d9565b610a34565b61017b61048e3660046113fc565b610a5a565b34801561049f57600080fd5b506002546101e6565b6000805160206118fe8339815191526104c18133610b8f565b60006104d1898989898989610782565b90506104dd8184610bf3565b6000817f4cf4410cc57040e44862ef0f45f3dd5a5e02db8eb8add648d4b0e236f1d07dca8b8b8b8b8b8a604051610519969594939291906114ce565b60405180910390a3505050505050505050565b60006001600160e01b03198216637965db0b60e01b148061055d57506301ffc9a760e01b6001600160e01b03198316145b92915050565b7fd8aa0f3194971a2a116679f7c2090f6939c8d4e01a2a8d7e41d55e5351469e6361058f816000610902565b61059d5761059d8133610b8f565b60006105ad888888888888610782565b90506105b98185610ce2565b6105c88160008a8a8a8a610d7e565b6105d181610e92565b5050505050505050565b6000818152600160205260408120546001811180156105fa5750428111155b9392505050565b60008281526020819052604090206001015461061d8133610b8f565b6106278383610ecb565b505050565b60008181526001602052604081205481905b1192915050565b6001600160a01b03811633146106ba5760405162461bcd60e51b815260206004820152602f60248201527f416363657373436f6e74726f6c3a2063616e206f6e6c792072656e6f756e636560448201526e103937b632b9903337b91039b2b63360891b60648201526084015b60405180910390fd5b6106c48282610f4f565b5050565b600081815260016020819052604082205461063e565b3330146107415760405162461bcd60e51b815260206004820152602b60248201527f54696d656c6f636b436f6e74726f6c6c65723a2063616c6c6572206d7573742060448201526a62652074696d656c6f636b60a81b60648201526084016106b1565b60025460408051918252602082018390527f11c24f4ead16507c69ac467fbd5e4eed5fb5c699626d2cc6d66421df253886d5910160405180910390a1600255565b600086868686868660405160200161079f969594939291906114ce565b6040516020818303038152906040528051906020012090509695505050505050565b6000805160206118fe8339815191526107da8133610b8f565b8887146107f95760405162461bcd60e51b81526004016106b19061150b565b8885146108185760405162461bcd60e51b81526004016106b19061150b565b600061082a8b8b8b8b8b8b8b8b61092b565b90506108368184610bf3565b60005b8a8110156108f45780827f4cf4410cc57040e44862ef0f45f3dd5a5e02db8eb8add648d4b0e236f1d07dca8e8e858181106108765761087661154e565b905060200201602081019061088b9190611564565b8d8d8681811061089d5761089d61154e565b905060200201358c8c878181106108b6576108b661154e565b90506020028101906108c8919061157f565b8c8b6040516108dc969594939291906114ce565b60405180910390a36108ed816115dc565b9050610839565b505050505050505050505050565b6000918252602082815260408084206001600160a01b0393909316845291905290205460ff1690565b6000888888888888888860405160200161094c98979695949392919061168a565b60405160208183030381529060405280519060200120905098975050505050505050565b6000805160206118fe8339815191526109898133610b8f565b610992826106c8565b6109f85760405162461bcd60e51b815260206004820152603160248201527f54696d656c6f636b436f6e74726f6c6c65723a206f7065726174696f6e2063616044820152701b9b9bdd0818994818d85b98d95b1b1959607a1b60648201526084016106b1565b6000828152600160205260408082208290555183917fbaa1eb22f2a492ba1a5fea61b8df4d27c6c8b5f3971e63bb58fa14ff72eedb7091a25050565b600082815260208190526040902060010154610a508133610b8f565b6106278383610f4f565b7fd8aa0f3194971a2a116679f7c2090f6939c8d4e01a2a8d7e41d55e5351469e63610a86816000610902565b610a9457610a948133610b8f565b878614610ab35760405162461bcd60e51b81526004016106b19061150b565b878414610ad25760405162461bcd60e51b81526004016106b19061150b565b6000610ae48a8a8a8a8a8a8a8a61092b565b9050610af08185610ce2565b60005b89811015610b7957610b6982828d8d85818110610b1257610b1261154e565b9050602002016020810190610b279190611564565b8c8c86818110610b3957610b3961154e565b905060200201358b8b87818110610b5257610b5261154e565b9050602002810190610b64919061157f565b610d7e565b610b72816115dc565b9050610af3565b50610b8381610e92565b50505050505050505050565b610b998282610902565b6106c457610bb1816001600160a01b03166014610fb4565b610bbc836020610fb4565b604051602001610bcd929190611765565b60408051601f198184030181529082905262461bcd60e51b82526106b1916004016117da565b610bfc8261062c565b15610c615760405162461bcd60e51b815260206004820152602f60248201527f54696d656c6f636b436f6e74726f6c6c65723a206f7065726174696f6e20616c60448201526e1c9958591e481cd8da19591d5b1959608a1b60648201526084016106b1565b600254811015610cc25760405162461bcd60e51b815260206004820152602660248201527f54696d656c6f636b436f6e74726f6c6c65723a20696e73756666696369656e746044820152652064656c617960d01b60648201526084016106b1565b610ccc814261180d565b6000928352600160205260409092209190915550565b610ceb826105db565b610d075760405162461bcd60e51b81526004016106b190611825565b801580610d235750600081815260016020819052604090912054145b6106c45760405162461bcd60e51b815260206004820152602660248201527f54696d656c6f636b436f6e74726f6c6c65723a206d697373696e6720646570656044820152656e64656e637960d01b60648201526084016106b1565b6000846001600160a01b0316848484604051610d9b92919061186f565b60006040518083038185875af1925050503d8060008114610dd8576040519150601f19603f3d011682016040523d82523d6000602084013e610ddd565b606091505b5050905080610e4a5760405162461bcd60e51b815260206004820152603360248201527f54696d656c6f636b436f6e74726f6c6c65723a20756e6465726c79696e6720746044820152721c985b9cd858dd1a5bdb881c995d995c9d1959606a1b60648201526084016106b1565b85877fc2617efa69bab66782fa219543714338489c4e9e178271560a91b82c3f612b5887878787604051610e81949392919061187f565b60405180910390a350505050505050565b610e9b816105db565b610eb75760405162461bcd60e51b81526004016106b190611825565b600090815260016020819052604090912055565b610ed58282610902565b6106c4576000828152602081815260408083206001600160a01b03851684529091529020805460ff19166001179055610f0b3390565b6001600160a01b0316816001600160a01b0316837f2f8788117e7eff1d82e926ec794901d17c78024a50270940304540a733656f0d60405160405180910390a45050565b610f598282610902565b156106c4576000828152602081815260408083206001600160a01b0385168085529252808320805460ff1916905551339285917ff6391f5c32d9c69d2a47ea670b442974b53935d1edc7fd64eb21e047a839171b9190a45050565b60606000610fc38360026118b1565b610fce90600261180d565b67ffffffffffffffff811115610fe657610fe66118d0565b6040519080825280601f01601f191660200182016040528015611010576020820181803683370190505b509050600360fc1b8160008151811061102b5761102b61154e565b60200101906001600160f81b031916908160001a905350600f60fb1b8160018151811061105a5761105a61154e565b60200101906001600160f81b031916908160001a905350600061107e8460026118b1565b61108990600161180d565b90505b6001811115611101576f181899199a1a9b1b9c1cb0b131b232b360811b85600f16601081106110bd576110bd61154e565b1a60f81b8282815181106110d3576110d361154e565b60200101906001600160f81b031916908160001a90535060049490941c936110fa816118e6565b905061108c565b5083156105fa5760405162461bcd60e51b815260206004820181905260248201527f537472696e67733a20686578206c656e67746820696e73756666696369656e7460448201526064016106b1565b80356001600160a01b038116811461116757600080fd5b919050565b60008083601f84011261117e57600080fd5b50813567ffffffffffffffff81111561119657600080fd5b6020830191508360208285010111156111ae57600080fd5b9250929050565b600080600080600080600060c0888a0312156111d057600080fd5b6111d988611150565b965060208801359550604088013567ffffffffffffffff8111156111fc57600080fd5b6112088a828b0161116c565b989b979a50986060810135976080820135975060a09091013595509350505050565b60006020828403121561123c57600080fd5b81356001600160e01b0319811681146105fa57600080fd5b60008060008060008060a0878903121561126d57600080fd5b61127687611150565b955060208701359450604087013567ffffffffffffffff81111561129957600080fd5b6112a589828a0161116c565b979a9699509760608101359660809091013595509350505050565b6000602082840312156112d257600080fd5b5035919050565b600080604083850312156112ec57600080fd5b823591506112fc60208401611150565b90509250929050565b60008083601f84011261131757600080fd5b50813567ffffffffffffffff81111561132f57600080fd5b6020830191508360208260051b85010111156111ae57600080fd5b600080600080600080600080600060c08a8c03121561136857600080fd5b893567ffffffffffffffff8082111561138057600080fd5b61138c8d838e01611305565b909b50995060208c01359150808211156113a557600080fd5b6113b18d838e01611305565b909950975060408c01359150808211156113ca57600080fd5b506113d78c828d01611305565b9a9d999c50979a969997986060880135976080810135975060a0013595509350505050565b60008060008060008060008060a0898b03121561141857600080fd5b883567ffffffffffffffff8082111561143057600080fd5b61143c8c838d01611305565b909a50985060208b013591508082111561145557600080fd5b6114618c838d01611305565b909850965060408b013591508082111561147a57600080fd5b506114878b828c01611305565b999c989b509699959896976060870135966080013595509350505050565b81835281816020850137506000828201602090810191909152601f909101601f19169091010190565b60018060a01b038716815285602082015260a0604082015260006114f660a0830186886114a5565b60608301949094525060800152949350505050565b60208082526023908201527f54696d656c6f636b436f6e74726f6c6c65723a206c656e677468206d69736d616040820152620e8c6d60eb1b606082015260800190565b634e487b7160e01b600052603260045260246000fd5b60006020828403121561157657600080fd5b6105fa82611150565b6000808335601e1984360301811261159657600080fd5b83018035915067ffffffffffffffff8211156115b157600080fd5b6020019150368190038213156111ae57600080fd5b634e487b7160e01b600052601160045260246000fd5b6000600182016115ee576115ee6115c6565b5060010190565b60008383855260208086019550808560051b8301018460005b8781101561167d57848303601f19018952813536889003601e1901811261163457600080fd5b8701803567ffffffffffffffff81111561164d57600080fd5b80360389131561165c57600080fd5b61166985828885016114a5565b9a86019a945050509083019060010161160e565b5090979650505050505050565b60a0808252810188905260008960c08301825b8b8110156116cb576001600160a01b036116b684611150565b1682526020928301929091019060010161169d565b5083810360208501528881526001600160fb1b038911156116eb57600080fd5b8860051b9150818a60208301378181019150506020810160008152602084830301604085015261171c81888a6115f5565b6060850196909652505050608001529695505050505050565b60005b83811015611750578181015183820152602001611738565b8381111561175f576000848401525b50505050565b7f416363657373436f6e74726f6c3a206163636f756e742000000000000000000081526000835161179d816017850160208801611735565b7001034b99036b4b9b9b4b733903937b6329607d1b60179184019182015283516117ce816028840160208801611735565b01602801949350505050565b60208152600082518060208401526117f9816040850160208701611735565b601f01601f19169190910160400192915050565b60008219821115611820576118206115c6565b500190565b6020808252602a908201527f54696d656c6f636b436f6e74726f6c6c65723a206f7065726174696f6e206973604082015269206e6f7420726561647960b01b606082015260800190565b8183823760009101908152919050565b60018060a01b03851681528360208201526060604082015260006118a76060830184866114a5565b9695505050505050565b60008160001904831182151516156118cb576118cb6115c6565b500290565b634e487b7160e01b600052604160045260246000fd5b6000816118f5576118f56115c6565b50600019019056feb09aa5aeb3702cfd50b6b62bc4532604938f21248a27a1d5ca736082b6819cc1a264697066735822122045528ff222a57f1333c29a0d5eef3a70b69d5ff3d7b5389fec4a7ef4f2bd8c5364736f6c634300080d00335f58e3a2316349923ce3780f8d587db2d72378aed66a8261c916544fa6846ca5b09aa5aeb3702cfd50b6b62bc4532604938f21248a27a1d5ca736082b6819cc1d8aa0f3194971a2a116679f7c2090f6939c8d4e01a2a8d7e41d55e5351469e63",
  "bytecodeSha1": "da39a3ee5e6b4b0d3255bfef95601890afd80709",
  "compiler": {
    "evm_version": "istanbul",
    "optimizer": {
      "enabled": true,
      "runs": 200
    },
    "version": "0.8.13+commit.abaa5c0e"
  },
  "contractName": "TimelockController",
  "language": "Solidity",
  "natspec": {
    "details": "Contract module which acts as a timelocked controller. When set as the owner of an `Ownable` smart contract, it enforces a timelock on all `onlyOwner` maintenance operations. This gives time for users of the controlled contract to exit before a potentially dangerous maintenance operation is applied. By default, this contract is self administered, meaning administration tasks have to go through the timelock process. The proposer (resp executor) role is in charge of proposing (resp executing) operations. A common use case is to position this {TimelockController} as the owner of a smart contract, with a multisig or a DAO as the sole proposer. _Available since v3.3._",
    "kind": "dev",
    "methods": {
      "cancel(bytes32)": {
        "details": "Cancel an operation. Requirements: - the caller must have the 'proposer' role."
      },
      "constructor": {
        "details": "Initializes the contract with a given `minDelay`."
      },
      "execute(address,uint256,bytes,bytes32,bytes32)": {
        "details": "Execute an (ready) operation containing a single transaction. Emits a {CallExecuted} event. Requirements: - the caller must have the 'executor' role."
      },
      "executeBatch(address[],uint256[],bytes[],bytes32,bytes32)": {
        "details": "Execute an (ready) operation containing a batch of transactions. Emits one {CallExecuted} event per transaction in the batch. Requirements: - the caller must have the 'executor' role."
      },
      "getMinDelay()": {
        "details": "Returns the minimum delay for an operation to become valid. This value can be changed by executing an operation that calls `updateDelay`."
      },
      "getRoleAdmin(bytes32)": {
        "details": "Returns the admin role that controls `role`. See {grantRole} and {revokeRole}. To change a role's admin, use {_setRoleAdmin}."
      },
      "getTimestamp(bytes32)": {
        "details": "Returns the timestamp at with an operation becomes ready (0 for unset operations, 1 for done operations)."
      },
      "grantRole(bytes32,address)": {
        "details": "Grants `role` to `account`. If `account` had not been already granted `role`, emits a {RoleGranted} event. Requirements: - the caller must have ``role``'s admin role."
      },
      "hasRole(bytes32,address)": {
        "details": "Returns `true` if `account` has been granted `role`."
      },
      "hashOperation(address,uint256,bytes,bytes32,bytes32)": {
        "details": "Returns the identifier of an operation containing a single transaction."
      },
      "hashOperationBatch(address[],uint256[],bytes[],bytes32,bytes32)": {
        "details": "Returns the identifier of an operation containing a batch of transactions."
      },
      "isOperation(bytes32)": {
        "details": "Returns whether an id correspond to a registered operation. This includes both Pending, Ready and Done operations."
      },
      "isOperationDone(bytes32)": {
        "details": "Returns whether an operation is done or not."
      },
      "isOperationPending(bytes32)": {
        "details": "Returns whether an operation is pending or not."
      },
      "isOperationReady(bytes32)": {
        "details": "Returns whether an operation is ready or not."
      },
      "renounceRole(bytes32,address)": {
        "details": "Revokes `role` from the calling account. Roles are often managed via {grantRole} and {revokeRole}: this function's purpose is to provide a mechanism for accounts to lose their privileges if they are compromised (such as when a trusted device is misplaced). If the calling account had been revoked `role`, emits a {RoleRevoked} event. Requirements: - the caller must be `account`."
      },
      "revokeRole(bytes32,address)": {
        "details": "Revokes `role` from `account`. If `account` had been granted `role`, emits a {RoleRevoked} event. Requirements: - the caller must have ``role``'s admin role."
      },
      "schedule(address,uint256,bytes,bytes32,bytes32,uint256)": {
        "details": "Schedule an operation containing a single transaction. Emits a {CallScheduled} event. Requirements: - the caller must have the 'proposer' role."
      },
      "scheduleBatch(address[],uint256[],bytes[],bytes32,bytes32,uint256)": {
        "details": "Schedule an operation containing a batch of transactions. Emits one {CallScheduled} event per transaction in the batch. Requirements: - the caller must have the 'proposer' role."
      },
      "supportsInterface(bytes4)": {
        "details": "See {IERC165-supportsInterface}."
      },
      "updateDelay(uint256)": {
        "details": "Changes the minimum timelock duration for future operations. Emits a {MinDelayChange} event. Requirements: - the caller must be the timelock itself. This can only be achieved by scheduling and later executing an operation where the timelock is the target and the data is the ABI-encoded call to this function."
      }
    },
    "version": 1
  },
  "opcodes": "PUSH1 0x80 PUSH1 0x40 MSTORE PUSH1 0x4 CALLDATASIZE LT PUSH2 0x14F JUMPI PUSH1 0x0 CALLDATALOAD PUSH1 0xE0 SHR DUP1 PUSH4 0x64D62353 GT PUSH2 0xB6 JUMPI DUP1 PUSH4 0xB1C5F427 GT PUSH2 0x6F JUMPI DUP1 PUSH4 0xB1C5F427 EQ PUSH2 0x3F3 JUMPI DUP1 PUSH4 0xC4D252F5 EQ PUSH2 0x413 JUMPI DUP1 PUSH4 0xD45C4435 EQ PUSH2 0x433 JUMPI DUP1 PUSH4 0xD547741F EQ PUSH2 0x460 JUMPI DUP1 PUSH4 0xE38335E5 EQ PUSH2 0x480 JUMPI DUP1 PUSH4 0xF27A0C92 EQ PUSH2 0x493 JUMPI PUSH1 0x0 DUP1 REVERT JUMPDEST DUP1 PUSH4 0x64D62353 EQ PUSH2 0x33C JUMPI DUP1 PUSH4 0x8065657F EQ PUSH2 0x35C JUMPI DUP1 PUSH4 0x8F2A0BB0 EQ PUSH2 0x37C JUMPI DUP1 PUSH4 0x8F61F4F5 EQ PUSH2 0x39C JUMPI DUP1 PUSH4 0x91D14854 EQ PUSH2 0x3BE JUMPI DUP1 PUSH4 0xA217FDDF EQ PUSH2 0x3DE JUMPI PUSH1 0x0 DUP1 REVERT JUMPDEST DUP1 PUSH4 0x248A9CA3 GT PUSH2 0x108 JUMPI DUP1 PUSH4 0x248A9CA3 EQ PUSH2 0x25B JUMPI DUP1 PUSH4 0x2AB0F529 EQ PUSH2 0x28B JUMPI DUP1 PUSH4 0x2F2FF15D EQ PUSH2 0x2BC JUMPI DUP1 PUSH4 0x31D50750 EQ PUSH2 0x2DC JUMPI DUP1 PUSH4 0x36568ABE EQ PUSH2 0x2FC JUMPI DUP1 PUSH4 0x584B153E EQ PUSH2 0x31C JUMPI PUSH1 0x0 DUP1 REVERT JUMPDEST DUP1 PUSH4 0x1D5062A EQ PUSH2 0x15B JUMPI DUP1 PUSH4 0x1FFC9A7 EQ PUSH2 0x17D JUMPI DUP1 PUSH4 0x7BD0265 EQ PUSH2 0x1B2 JUMPI DUP1 PUSH4 0xD3CF6FC EQ PUSH2 0x1F4 JUMPI DUP1 PUSH4 0x134008D3 EQ PUSH2 0x228 JUMPI DUP1 PUSH4 0x13BC9F20 EQ PUSH2 0x23B JUMPI PUSH1 0x0 DUP1 REVERT JUMPDEST CALLDATASIZE PUSH2 0x156 JUMPI STOP JUMPDEST PUSH1 0x0 DUP1 REVERT JUMPDEST CALLVALUE DUP1 ISZERO PUSH2 0x167 JUMPI PUSH1 0x0 DUP1 REVERT JUMPDEST POP PUSH2 0x17B PUSH2 0x176 CALLDATASIZE PUSH1 0x4 PUSH2 0x11B5 JUMP JUMPDEST PUSH2 0x4A8 JUMP JUMPDEST STOP JUMPDEST CALLVALUE DUP1 ISZERO PUSH2 0x189 JUMPI PUSH1 0x0 DUP1 REVERT JUMPDEST POP PUSH2 0x19D PUSH2 0x198 CALLDATASIZE PUSH1 0x4 PUSH2 0x122A JUMP JUMPDEST PUSH2 0x52C JUMP JUMPDEST PUSH1 0x40 MLOAD SWAP1 ISZERO ISZERO DUP2 MSTORE PUSH1 0x20 ADD JUMPDEST PUSH1 0x40 MLOAD DUP1 SWAP2 SUB SWAP1 RETURN JUMPDEST CALLVALUE DUP1 ISZERO PUSH2 0x1BE JUMPI PUSH1 0x0 DUP1 REVERT JUMPDEST POP PUSH2 0x1E6 PUSH32 0xD8AA0F3194971A2A116679F7C2090F6939C8D4E01A2A8D7E41D55E5351469E63 DUP2 JUMP JUMPDEST PUSH1 0x40 MLOAD SWAP1 DUP2 MSTORE PUSH1 0x20 ADD PUSH2 0x1A9 JUMP JUMPDEST CALLVALUE DUP1 ISZERO PUSH2 0x200 JUMPI PUSH1 0x0 DUP1 REVERT JUMPDEST POP PUSH2 0x1E6 PUSH32 0x5F58E3A2316349923CE3780F8D587DB2D72378AED66A8261C916544FA6846CA5 DUP2 JUMP JUMPDEST PUSH2 0x17B PUSH2 0x236 CALLDATASIZE PUSH1 0x4 PUSH2 0x1254 JUMP JUMPDEST PUSH2 0x563 JUMP JUMPDEST CALLVALUE DUP1 ISZERO PUSH2 0x247 JUMPI PUSH1 0x0 DUP1 REVERT JUMPDEST POP PUSH2 0x19D PUSH2 0x256 CALLDATASIZE PUSH1 0x4 PUSH2 0x12C0 JUMP JUMPDEST PUSH2 0x5DB JUMP JUMPDEST CALLVALUE DUP1 ISZERO PUSH2 0x267 JUMPI PUSH1 0x0 DUP1 REVERT JUMPDEST POP PUSH2 0x1E6 PUSH2 0x276 CALLDATASIZE PUSH1 0x4 PUSH2 0x12C0 JUMP JUMPDEST PUSH1 0x0 SWAP1 DUP2 MSTORE PUSH1 0x20 DUP2 SWAP1 MSTORE PUSH1 0x40 SWAP1 KECCAK256 PUSH1 0x1 ADD SLOAD SWAP1 JUMP JUMPDEST CALLVALUE DUP1 ISZERO PUSH2 0x297 JUMPI PUSH1 0x0 DUP1 REVERT JUMPDEST POP PUSH2 0x19D PUSH2 0x2A6 CALLDATASIZE PUSH1 0x4 PUSH2 0x12C0 JUMP JUMPDEST PUSH1 0x0 SWAP1 DUP2 MSTORE PUSH1 0x1 PUSH1 0x20 DUP2 SWAP1 MSTORE PUSH1 0x40 SWAP1 SWAP2 KECCAK256 SLOAD EQ SWAP1 JUMP JUMPDEST CALLVALUE DUP1 ISZERO PUSH2 0x2C8 JUMPI PUSH1 0x0 DUP1 REVERT JUMPDEST POP PUSH2 0x17B PUSH2 0x2D7 CALLDATASIZE PUSH1 0x4 PUSH2 0x12D9 JUMP JUMPDEST PUSH2 0x601 JUMP JUMPDEST CALLVALUE DUP1 ISZERO PUSH2 0x2E8 JUMPI PUSH1 0x0 DUP1 REVERT JUMPDEST POP PUSH2 0x19D PUSH2 0x2F7 CALLDATASIZE PUSH1 0x4 PUSH2 0x12C0 JUMP JUMPDEST PUSH2 0x62C JUMP JUMPDEST CALLVALUE DUP1 ISZERO PUSH2 0x308 JUMPI PUSH1 0x0 DUP1 REVERT JUMPDEST POP PUSH2 0x17B PUSH2 0x317 CALLDATASIZE PUSH1 0x4 PUSH2 0x12D9 JUMP JUMPDEST PUSH2 0x645 JUMP JUMPDEST CALLVALUE DUP1 ISZERO PUSH2 0x328 JUMPI PUSH1 0x0 DUP1 REVERT JUMPDEST POP PUSH2 0x19D PUSH2 0x337 CALLDATASIZE PUSH1 0x4 PUSH2 0x12C0 JUMP JUMPDEST PUSH2 0x6C8 JUMP JUMPDEST CALLVALUE DUP1 ISZERO PUSH2 0x348 JUMPI PUSH1 0x0 DUP1 REVERT JUMPDEST POP PUSH2 0x17B PUSH2 0x357 CALLDATASIZE PUSH1 0x4 PUSH2 0x12C0 JUMP JUMPDEST PUSH2 0x6DE JUMP JUMPDEST CALLVALUE DUP1 ISZERO PUSH2 0x368 JUMPI PUSH1 0x0 DUP1 REVERT JUMPDEST POP PUSH2 0x1E6 PUSH2 0x377 CALLDATASIZE PUSH1 0x4 PUSH2 0x1254 JUMP JUMPDEST PUSH2 0x782 JUMP JUMPDEST CALLVALUE DUP1 ISZERO PUSH2 0x388 JUMPI PUSH1 0x0 DUP1 REVERT JUMPDEST POP PUSH2 0x17B PUSH2 0x397 CALLDATASIZE PUSH1 0x4 PUSH2 0x134A JUMP JUMPDEST PUSH2 0x7C1 JUMP JUMPDEST CALLVALUE DUP1 ISZERO PUSH2 0x3A8 JUMPI PUSH1 0x0 DUP1 REVERT JUMPDEST POP PUSH2 0x1E6 PUSH1 0x0 DUP1 MLOAD PUSH1 0x20 PUSH2 0x18FE DUP4 CODECOPY DUP2 MLOAD SWAP2 MSTORE DUP2 JUMP JUMPDEST CALLVALUE DUP1 ISZERO PUSH2 0x3CA JUMPI PUSH1 0x0 DUP1 REVERT JUMPDEST POP PUSH2 0x19D PUSH2 0x3D9 CALLDATASIZE PUSH1 0x4 PUSH2 0x12D9 JUMP JUMPDEST PUSH2 0x902 JUMP JUMPDEST CALLVALUE DUP1 ISZERO PUSH2 0x3EA JUMPI PUSH1 0x0 DUP1 REVERT JUMPDEST POP PUSH2 0x1E6 PUSH1 0x0 DUP2 JUMP JUMPDEST CALLVALUE DUP1 ISZERO PUSH2 0x3FF JUMPI PUSH1 0x0 DUP1 REVERT JUMPDEST POP PUSH2 0x1E6 PUSH2 0x40E CALLDATASIZE PUSH1 0x4 PUSH2 0x13FC JUMP JUMPDEST PUSH2 0x92B JUMP JUMPDEST CALLVALUE DUP1 ISZERO PUSH2 0x41F JUMPI PUSH1 0x0 DUP1 REVERT JUMPDEST POP PUSH2 0x17B PUSH2 0x42E CALLDATASIZE PUSH1 0x4 PUSH2 0x12C0 JUMP JUMPDEST PUSH2 0x970 JUMP JUMPDEST CALLVALUE DUP1 ISZERO PUSH2 0x43F JUMPI PUSH1 0x0 DUP1 REVERT JUMPDEST POP PUSH2 0x1E6 PUSH2 0x44E CALLDATASIZE PUSH1 0x4 PUSH2 0x12C0 JUMP JUMPDEST PUSH1 0x0 SWAP1 DUP2 MSTORE PUSH1 0x1 PUSH1 0x20 MSTORE PUSH1 0x40 SWAP1 KECCAK256 SLOAD SWAP1 JUMP JUMPDEST CALLVALUE DUP1 ISZERO PUSH2 0x46C JUMPI PUSH1 0x0 DUP1 REVERT JUMPDEST POP PUSH2 0x17B PUSH2 0x47B CALLDATASIZE PUSH1 0x4 PUSH2 0x12D9 JUMP JUMPDEST PUSH2 0xA34 JUMP JUMPDEST PUSH2 0x17B PUSH2 0x48E CALLDATASIZE PUSH1 0x4 PUSH2 0x13FC JUMP JUMPDEST PUSH2 0xA5A JUMP JUMPDEST CALLVALUE DUP1 ISZERO PUSH2 0x49F JUMPI PUSH1 0x0 DUP1 REVERT JUMPDEST POP PUSH1 0x2 SLOAD PUSH2 0x1E6 JUMP JUMPDEST PUSH1 0x0 DUP1 MLOAD PUSH1 0x20 PUSH2 0x18FE DUP4 CODECOPY DUP2 MLOAD SWAP2 MSTORE PUSH2 0x4C1 DUP2 CALLER PUSH2 0xB8F JUMP JUMPDEST PUSH1 0x0 PUSH2 0x4D1 DUP10 DUP10 DUP10 DUP10 DUP10 DUP10 PUSH2 0x782 JUMP JUMPDEST SWAP1 POP PUSH2 0x4DD DUP2 DUP5 PUSH2 0xBF3 JUMP JUMPDEST PUSH1 0x0 DUP2 PUSH32 0x4CF4410CC57040E44862EF0F45F3DD5A5E02DB8EB8ADD648D4B0E236F1D07DCA DUP12 DUP12 DUP12 DUP12 DUP12 DUP11 PUSH1 0x40 MLOAD PUSH2 0x519 SWAP7 SWAP6 SWAP5 SWAP4 SWAP3 SWAP2 SWAP1 PUSH2 0x14CE JUMP JUMPDEST PUSH1 0x40 MLOAD DUP1 SWAP2 SUB SWAP1 LOG3 POP POP POP POP POP POP POP POP POP JUMP JUMPDEST PUSH1 0x0 PUSH1 0x1 PUSH1 0x1 PUSH1 0xE0 SHL SUB NOT DUP3 AND PUSH4 0x7965DB0B PUSH1 0xE0 SHL EQ DUP1 PUSH2 0x55D JUMPI POP PUSH4 0x1FFC9A7 PUSH1 0xE0 SHL PUSH1 0x1 PUSH1 0x1 PUSH1 0xE0 SHL SUB NOT DUP4 AND EQ JUMPDEST SWAP3 SWAP2 POP POP JUMP JUMPDEST PUSH32 0xD8AA0F3194971A2A116679F7C2090F6939C8D4E01A2A8D7E41D55E5351469E63 PUSH2 0x58F DUP2 PUSH1 0x0 PUSH2 0x902 JUMP JUMPDEST PUSH2 0x59D JUMPI PUSH2 0x59D DUP2 CALLER PUSH2 0xB8F JUMP JUMPDEST PUSH1 0x0 PUSH2 0x5AD DUP9 DUP9 DUP9 DUP9 DUP9 DUP9 PUSH2 0x782 JUMP JUMPDEST SWAP1 POP PUSH2 0x5B9 DUP2 DUP6 PUSH2 0xCE2 JUMP JUMPDEST PUSH2 0x5C8 DUP2 PUSH1 0x0 DUP11 DUP11 DUP11 DUP11 PUSH2 0xD7E JUMP JUMPDEST PUSH2 0x5D1 DUP2 PUSH2 0xE92 JUMP JUMPDEST POP POP POP POP POP POP POP POP JUMP JUMPDEST PUSH1 0x0 DUP2 DUP2 MSTORE PUSH1 0x1 PUSH1 0x20 MSTORE PUSH1 0x40 DUP2 KECCAK256 SLOAD PUSH1 0x1 DUP2 GT DUP1 ISZERO PUSH2 0x5FA JUMPI POP TIMESTAMP DUP2 GT ISZERO JUMPDEST SWAP4 SWAP3 POP POP POP JUMP JUMPDEST PUSH1 0x0 DUP3 DUP2 MSTORE PUSH1 0x20 DUP2 SWAP1 MSTORE PUSH1 0x40 SWAP1 KECCAK256 PUSH1 0x1 ADD SLOAD PUSH2 0x61D DUP2 CALLER PUSH2 0xB8F JUMP JUMPDEST PUSH2 0x627 DUP4 DUP4 PUSH2 0xECB JUMP JUMPDEST POP POP POP JUMP JUMPDEST PUSH1 0x0 DUP2 DUP2 MSTORE PUSH1 0x1 PUSH1 0x20 MSTORE PUSH1 0x40 DUP2 KECCAK256 SLOAD DUP2 SWAP1 JUMPDEST GT SWAP3 SWAP2 POP POP JUMP JUMPDEST PUSH1 0x1 PUSH1 0x1 PUSH1 0xA0 SHL SUB DUP2 AND CALLER EQ PUSH2 0x6BA JUMPI PUSH1 0x40 MLOAD PUSH3 0x461BCD PUSH1 0xE5 SHL DUP2 MSTORE PUSH1 0x20 PUSH1 0x4 DUP3 ADD MSTORE PUSH1 0x2F PUSH1 0x24 DUP3 ADD MSTORE PUSH32 0x416363657373436F6E74726F6C3A2063616E206F6E6C792072656E6F756E6365 PUSH1 0x44 DUP3 ADD MSTORE PUSH15 0x103937B632B9903337B91039B2B633 PUSH1 0x89 SHL PUSH1 0x64 DUP3 ADD MSTORE PUSH1 0x84 ADD JUMPDEST PUSH1 0x40 MLOAD DUP1 SWAP2 SUB SWAP1 REVERT JUMPDEST PUSH2 0x6C4 DUP3 DUP3 PUSH2 0xF4F JUMP JUMPDEST POP POP JUMP JUMPDEST PUSH1 0x0 DUP2 DUP2 MSTORE PUSH1 0x1 PUSH1 0x20 DUP2 SWAP1 MSTORE PUSH1 0x40 DUP3 KECCAK256 SLOAD PUSH2 0x63E JUMP JUMPDEST CALLER ADDRESS EQ PUSH2 0x741 JUMPI PUSH1 0x40 MLOAD PUSH3 0x461BCD PUSH1 0xE5 SHL DUP2 MSTORE PUSH1 0x20 PUSH1 0x4 DUP3 ADD MSTORE PUSH1 0x2B PUSH1 0x24 DUP3 ADD MSTORE PUSH32 0x54696D656C6F636B436F6E74726F6C6C65723A2063616C6C6572206D75737420 PUSH1 0x44 DUP3 ADD MSTORE PUSH11 0x62652074696D656C6F636B PUSH1 0xA8 SHL PUSH1 0x64 DUP3 ADD MSTORE PUSH1 0x84 ADD PUSH2 0x6B1 JUMP JUMPDEST PUSH1 0x2 SLOAD PUSH1 0x40 DUP1 MLOAD SWAP2 DUP3 MSTORE PUSH1 0x20 DUP3 ADD DUP4 SWAP1 MSTORE PUSH32 0x11C24F4EAD16507C69AC467FBD5E4EED5FB5C699626D2CC6D66421DF253886D5 SWAP2 ADD PUSH1 0x40 MLOAD DUP1 SWAP2 SUB SWAP1 LOG1 PUSH1 0x2 SSTORE JUMP JUMPDEST PUSH1 0x0 DUP7 DUP7 DUP7 DUP7 DUP7 DUP7 PUSH1 0x40 MLOAD PUSH1 0x20 ADD PUSH2 0x79F SWAP7 SWAP6 SWAP5 SWAP4 SWAP3 SWAP2 SWAP1 PUSH2 0x14CE JUMP JUMPDEST PUSH1 0x40 MLOAD PUSH1 0x20 DUP2 DUP4 SUB SUB DUP2 MSTORE SWAP1 PUSH1 0x40 MSTORE DUP1 MLOAD SWAP1 PUSH1 0x20 ADD KECCAK256 SWAP1 POP SWAP7 SWAP6 POP POP POP POP POP POP JUMP JUMPDEST PUSH1 0x0 DUP1 MLOAD PUSH1 0x20 PUSH2 0x18FE DUP4 CODECOPY DUP2 MLOAD SWAP2 MSTORE PUSH2 0x7DA DUP2 CALLER PUSH2 0xB8F JUMP JUMPDEST DUP9 DUP8 EQ PUSH2 0x7F9 JUMPI PUSH1 0x40 MLOAD PUSH3 0x461BCD PUSH1 0xE5 SHL DUP2 MSTORE PUSH1 0x4 ADD PUSH2 0x6B1 SWAP1 PUSH2 0x150B JUMP JUMPDEST DUP9 DUP6 EQ PUSH2 0x818 JUMPI PUSH1 0x40 MLOAD PUSH3 0x461BCD PUSH1 0xE5 SHL DUP2 MSTORE PUSH1 0x4 ADD PUSH2 0x6B1 SWAP1 PUSH2 0x150B JUMP JUMPDEST PUSH1 0x0 PUSH2 0x82A DUP12 DUP12 DUP12 DUP12 DUP12 DUP12 DUP12 DUP12 PUSH2 0x92B JUMP JUMPDEST SWAP1 POP PUSH2 0x836 DUP2 DUP5 PUSH2 0xBF3 JUMP JUMPDEST PUSH1 0x0 JUMPDEST DUP11 DUP2 LT ISZERO PUSH2 0x8F4 JUMPI DUP1 DUP3 PUSH32 0x4CF4410CC57040E44862EF0F45F3DD5A5E02DB8EB8ADD648D4B0E236F1D07DCA DUP15 DUP15 DUP6 DUP2 DUP2 LT PUSH2 0x876 JUMPI PUSH2 0x876 PUSH2 0x154E JUMP JUMPDEST SWAP1 POP PUSH1 0x20 MUL ADD PUSH1 0x20 DUP2 ADD SWAP1 PUSH2 0x88B SWAP2 SWAP1 PUSH2 0x1564 JUMP JUMPDEST DUP14 DUP14 DUP7 DUP2 DUP2 LT PUSH2 0x89D JUMPI PUSH2 0x89D PUSH2 0x154E JUMP JUMPDEST SWAP1 POP PUSH1 0x20 MUL ADD CALLDATALOAD DUP13 DUP13 DUP8 DUP2 DUP2 LT PUSH2 0x8B6 JUMPI PUSH2 0x8B6 PUSH2 0x154E JUMP JUMPDEST SWAP1 POP PUSH1 0x20 MUL DUP2 ADD SWAP1 PUSH2 0x8C8 SWAP2 SWAP1 PUSH2 0x157F JUMP JUMPDEST DUP13 DUP12 PUSH1 0x40 MLOAD PUSH2 0x8DC SWAP7 SWAP6 SWAP5 SWAP4 SWAP3 SWAP2 SWAP1 PUSH2 0x14CE JUMP JUMPDEST PUSH1 0x40 MLOAD DUP1 SWAP2 SUB SWAP1 LOG3 PUSH2 0x8ED DUP2 PUSH2 0x15DC JUMP JUMPDEST SWAP1 POP PUSH2 0x839 JUMP JUMPDEST POP POP POP POP POP POP POP POP POP POP POP POP JUMP JUMPDEST PUSH1 0x0 SWAP2 DUP3 MSTORE PUSH1 0x20 DUP3 DUP2 MSTORE PUSH1 0x40 DUP1 DUP5 KECCAK256 PUSH1 0x1 PUSH1 0x1 PUSH1 0xA0 SHL SUB SWAP4 SWAP1 SWAP4 AND DUP5 MSTORE SWAP2 SWAP1 MSTORE SWAP1 KECCAK256 SLOAD PUSH1 0xFF AND SWAP1 JUMP JUMPDEST PUSH1 0x0 DUP9 DUP9 DUP9 DUP9 DUP9 DUP9 DUP9 DUP9 PUSH1 0x40 MLOAD PUSH1 0x20 ADD PUSH2 0x94C SWAP9 SWAP8 SWAP7 SWAP6 SWAP5 SWAP4 SWAP3 SWAP2 SWAP1 PUSH2 0x168A JUMP JUMPDEST PUSH1 0x40 MLOAD PUSH1 0x20 DUP2 DUP4 SUB SUB DUP2 MSTORE SWAP1 PUSH1 0x40 MSTORE DUP1 MLOAD SWAP1 PUSH1 0x20 ADD KECCAK256 SWAP1 POP SWAP9 SWAP8 POP POP POP POP POP POP POP POP JUMP JUMPDEST PUSH1 0x0 DUP1 MLOAD PUSH1 0x20 PUSH2 0x18FE DUP4 CODECOPY DUP2 MLOAD SWAP2 MSTORE PUSH2 0x989 DUP2 CALLER PUSH2 0xB8F JUMP JUMPDEST PUSH2 0x992 DUP3 PUSH2 0x6C8 JUMP JUMPDEST PUSH2 0x9F8 JUMPI PUSH1 0x40 MLOAD PUSH3 0x461BCD PUSH1 0xE5 SHL DUP2 MSTORE PUSH1 0x20 PUSH1 0x4 DUP3 ADD MSTORE PUSH1 0x31 PUSH1 0x24 DUP3 ADD MSTORE PUSH32 0x54696D656C6F636B436F6E74726F6C6C65723A206F7065726174696F6E206361 PUSH1 0x44 DUP3 ADD MSTORE PUSH17 0x1B9B9BDD0818994818D85B98D95B1B1959 PUSH1 0x7A SHL PUSH1 0x64 DUP3 ADD MSTORE PUSH1 0x84 ADD PUSH2 0x6B1 JUMP JUMPDEST PUSH1 0x0 DUP3 DUP2 MSTORE PUSH1 0x1 PUSH1 0x20 MSTORE PUSH1 0x40 DUP1 DUP3 KECCAK256 DUP3 SWAP1 SSTORE MLOAD DUP4 SWAP2 PUSH32 0xBAA1EB22F2A492BA1A5FEA61B8DF4D27C6C8B5F3971E63BB58FA14FF72EEDB70 SWAP2 LOG2 POP POP JUMP JUMPDEST PUSH1 0x0 DUP3 DUP2 MSTORE PUSH1 0x20 DUP2 SWAP1 MSTORE PUSH1 0x40 SWAP1 KECCAK256 PUSH1 0x1 ADD SLOAD PUSH2 0xA50 DUP2 CALLER PUSH2 0xB8F JUMP JUMPDEST PUSH2 0x627 DUP4 DUP4 PUSH2 0xF4F JUMP JUMPDEST PUSH32 0xD8AA0F3194971A2A116679F7C2090F6939C8D4E01A2A8D7E41D55E5351469E63 PUSH2 0xA86 DUP2 PUSH1 0x0 PUSH2 0x902 JUMP JUMPDEST PUSH2 0xA94 JUMPI PUSH2 0xA94 DUP2 CALLER PUSH2 0xB8F JUMP JUMPDEST DUP8 DUP7 EQ PUSH2 0xAB3 JUMPI PUSH1 0x40 MLOAD PUSH3 0x461BCD PUSH1 0xE5 SHL DUP2 MSTORE PUSH1 0x4 ADD PUSH2 0x6B1 SWAP1 PUSH2 0x150B JUMP JUMPDEST DUP8 DUP5 EQ PUSH2 0xAD2 JUMPI PUSH1 0x40 MLOAD PUSH3 0x461BCD PUSH1 0xE5 SHL DUP2 MSTORE PUSH1 0x4 ADD PUSH2 0x6B1 SWAP1 PUSH2 0x150B JUMP JUMPDEST PUSH1 0x0 PUSH2 0xAE4 DUP11 DUP11 DUP11 DUP11 DUP11 DUP11 DUP11 DUP11 PUSH2 0x92B JUMP JUMPDEST SWAP1 POP PUSH2 0xAF0 DUP2 DUP6 PUSH2 0xCE2 JUMP JUMPDEST PUSH1 0x0 JUMPDEST DUP10 DUP2 LT ISZERO PUSH2 0xB79 JUMPI PUSH2 0xB69 DUP3 DUP3 DUP14 DUP14 DUP6 DUP2 DUP2 LT PUSH2 0xB12 JUMPI PUSH2 0xB12 PUSH2 0x154E JUMP JUMPDEST SWAP1 POP PUSH1 0x20 MUL ADD PUSH1 0x20 DUP2 ADD SWAP1 PUSH2 0xB27 SWAP2 SWAP1 PUSH2 0x1564 JUMP JUMPDEST DUP13 DUP13 DUP7 DUP2 DUP2 LT PUSH2 0xB39 JUMPI PUSH2 0xB39 PUSH2 0x154E JUMP JUMPDEST SWAP1 POP PUSH1 0x20 MUL ADD CALLDATALOAD DUP12 DUP12 DUP8 DUP2 DUP2 LT PUSH2 0xB52 JUMPI PUSH2 0xB52 PUSH2 0x154E JUMP JUMPDEST SWAP1 POP PUSH1 0x20 MUL DUP2 ADD SWAP1 PUSH2 0xB64 SWAP2 SWAP1 PUSH2 0x157F JUMP JUMPDEST PUSH2 0xD7E JUMP JUMPDEST PUSH2 0xB72 DUP2 PUSH2 0x15DC JUMP JUMPDEST SWAP1 POP PUSH2 0xAF3 JUMP JUMPDEST POP PUSH2 0xB83 DUP2 PUSH2 0xE92 JUMP JUMPDEST POP POP POP POP POP POP POP POP POP POP JUMP JUMPDEST PUSH2 0xB99 DUP3 DUP3 PUSH2 0x902 JUMP JUMPDEST PUSH2 0x6C4 JUMPI PUSH2 0xBB1 DUP2 PUSH1 0x1 PUSH1 0x1 PUSH1 0xA0 SHL SUB AND PUSH1 0x14 PUSH2 0xFB4 JUMP JUMPDEST PUSH2 0xBBC DUP4 PUSH1 0x20 PUSH2 0xFB4 JUMP JUMPDEST PUSH1 0x40 MLOAD PUSH1 0x20 ADD PUSH2 0xBCD SWAP3 SWAP2 SWAP1 PUSH2 0x1765 JUMP JUMPDEST PUSH1 0x40 DUP1 MLOAD PUSH1 0x1F NOT DUP2 DUP5 SUB ADD DUP2 MSTORE SWAP1 DUP3 SWAP1 MSTORE PUSH3 0x461BCD PUSH1 0xE5 SHL DUP3 MSTORE PUSH2 0x6B1 SWAP2 PUSH1 0x4 ADD PUSH2 0x17DA JUMP JUMPDEST PUSH2 0xBFC DUP3 PUSH2 0x62C JUMP JUMPDEST ISZERO PUSH2 0xC61 JUMPI PUSH1 0x40 MLOAD PUSH3 0x461BCD PUSH1 0xE5 SHL DUP2 MSTORE PUSH1 0x20 PUSH1 0x4 DUP3 ADD MSTORE PUSH1 0x2F PUSH1 0x24 DUP3 ADD MSTORE PUSH32 0x54696D656C6F636B436F6E74726F6C6C65723A206F7065726174696F6E20616C PUSH1 0x44 DUP3 ADD MSTORE PUSH15 0x1C9958591E481CD8DA19591D5B1959 PUSH1 0x8A SHL PUSH1 0x64 DUP3 ADD MSTORE PUSH1 0x84 ADD PUSH2 0x6B1 JUMP JUMPDEST PUSH1 0x2 SLOAD DUP2 LT ISZERO PUSH2 0xCC2 JUMPI PUSH1 0x40 MLOAD PUSH3 0x461BCD PUSH1 0xE5 SHL DUP2 MSTORE PUSH1 0x20 PUSH1 0x4 DUP3 ADD MSTORE PUSH1 0x26 PUSH1 0x24 DUP3 ADD MSTORE PUSH32 0x54696D656C6F636B436F6E74726F6C6C65723A20696E73756666696369656E74 PUSH1 0x44 DUP3 ADD MSTORE PUSH6 0x2064656C6179 PUSH1 0xD0 SHL PUSH1 0x64 DUP3 ADD MSTORE PUSH1 0x84 ADD PUSH2 0x6B1 JUMP JUMPDEST PUSH2 0xCCC DUP2 TIMESTAMP PUSH2 0x180D JUMP JUMPDEST PUSH1 0x0 SWAP3 DUP4 MSTORE PUSH1 0x1 PUSH1 0x20 MSTORE PUSH1 0x40 SWAP1 SWAP3 KECCAK256 SWAP2 SWAP1 SWAP2 SSTORE POP JUMP JUMPDEST PUSH2 0xCEB DUP3 PUSH2 0x5DB JUMP JUMPDEST PUSH2 0xD07 JUMPI PUSH1 0x40 MLOAD PUSH3 0x461BCD PUSH1 0xE5 SHL DUP2 MSTORE PUSH1 0x4 ADD PUSH2 0x6B1 SWAP1 PUSH2 0x1825 JUMP JUMPDEST DUP1 ISZERO DUP1 PUSH2 0xD23 JUMPI POP PUSH1 0x0 DUP2 DUP2 MSTORE PUSH1 0x1 PUSH1 0x20 DUP2 SWAP1 MSTORE PUSH1 0x40 SWAP1 SWAP2 KECCAK256 SLOAD EQ JUMPDEST PUSH2 0x6C4 JUMPI PUSH1 0x40 MLOAD PUSH3 0x461BCD PUSH1 0xE5 SHL DUP2 MSTORE PUSH1 0x20 PUSH1 0x4 DUP3 ADD MSTORE PUSH1 0x26 PUSH1 0x24 DUP3 ADD MSTORE PUSH32 0x54696D656C6F636B436F6E74726F6C6C65723A206D697373696E672064657065 PUSH1 0x44 DUP3 ADD MSTORE PUSH6 0x6E64656E6379 PUSH1 0xD0 SHL PUSH1 0x64 DUP3 ADD MSTORE PUSH1 0x84 ADD PUSH2 0x6B1 JUMP JUMPDEST PUSH1 0x0 DUP5 PUSH1 0x1 PUSH1 0x1 PUSH1 0xA0 SHL SUB AND DUP5 DUP5 DUP5 PUSH1 0x40 MLOAD PUSH2 0xD9B SWAP3 SWAP2 SWAP1 PUSH2 0x186F JUMP JUMPDEST PUSH1 0x0 PUSH1 0x40 MLOAD DUP1 DUP4 SUB DUP2 DUP6 DUP8 GAS CALL SWAP3 POP POP POP RETURNDATASIZE DUP1 PUSH1 0x0 DUP2 EQ PUSH2 0xDD8 JUMPI PUSH1 0x40 MLOAD SWAP2 POP PUSH1 0x1F NOT PUSH1 0x3F RETURNDATASIZE ADD AND DUP3 ADD PUSH1 0x40 MSTORE RETURNDATASIZE DUP3 MSTORE RETURNDATASIZE PUSH1 0x0 PUSH1 0x20 DUP5 ADD RETURNDATACOPY PUSH2 0xDDD JUMP JUMPDEST PUSH1 0x60 SWAP2 POP JUMPDEST POP POP SWAP1 POP DUP1 PUSH2 0xE4A JUMPI PUSH1 0x40 MLOAD PUSH3 0x461BCD PUSH1 0xE5 SHL DUP2 MSTORE PUSH1 0x20 PUSH1 0x4 DUP3 ADD MSTORE PUSH1 0x33 PUSH1 0x24 DUP3 ADD MSTORE PUSH32 0x54696D656C6F636B436F6E74726F6C6C65723A20756E6465726C79696E672074 PUSH1 0x44 DUP3 ADD MSTORE PUSH19 0x1C985B9CD858DD1A5BDB881C995D995C9D1959 PUSH1 0x6A SHL PUSH1 0x64 DUP3 ADD MSTORE PUSH1 0x84 ADD PUSH2 0x6B1 JUMP JUMPDEST DUP6 DUP8 PUSH32 0xC2617EFA69BAB66782FA219543714338489C4E9E178271560A91B82C3F612B58 DUP8 DUP8 DUP8 DUP8 PUSH1 0x40 MLOAD PUSH2 0xE81 SWAP5 SWAP4 SWAP3 SWAP2 SWAP1 PUSH2 0x187F JUMP JUMPDEST PUSH1 0x40 MLOAD DUP1 SWAP2 SUB SWAP1 LOG3 POP POP POP POP POP POP POP JUMP JUMPDEST PUSH2 0xE9B DUP2 PUSH2 0x5DB JUMP JUMPDEST PUSH2 0xEB7 JUMPI PUSH1 0x40 MLOAD PUSH3 0x461BCD PUSH1 0xE5 SHL DUP2 MSTORE PUSH1 0x4 ADD PUSH2 0x6B1 SWAP1 PUSH2 0x1825 JUMP JUMPDEST PUSH1 0x0 SWAP1 DUP2 MSTORE PUSH1 0x1 PUSH1 0x20 DUP2 SWAP1 MSTORE PUSH1 0x40 SWAP1 SWAP2 KECCAK256 SSTORE JUMP JUMPDEST PUSH2 0xED5 DUP3 DUP3 PUSH2 0x902 JUMP JUMPDEST PUSH2 0x6C4 JUMPI PUSH1 0x0 DUP3 DUP2 MSTORE PUSH1 0x20 DUP2 DUP2 MSTORE PUSH1 0x40 DUP1 DUP4 KECCAK256 PUSH1 0x1 PUSH1 0x1 PUSH1 0xA0 SHL SUB DUP6 AND DUP5 MSTORE SWAP1 SWAP2 MSTORE SWAP1 KECCAK256 DUP1 SLOAD PUSH1 0xFF NOT AND PUSH1 0x1 OR SWAP1 SSTORE PUSH2 0xF0B CALLER SWAP1 JUMP JUMPDEST PUSH1 0x1 PUSH1 0x1 PUSH1 0xA0 SHL SUB AND DUP2 PUSH1 0x1 PUSH1 0x1 PUSH1 0xA0 SHL SUB AND DUP4 PUSH32 0x2F8788117E7EFF1D82E926EC794901D17C78024A50270940304540A733656F0D PUSH1 0x40 MLOAD PUSH1 0x40 MLOAD DUP1 SWAP2 SUB SWAP1 LOG4 POP POP JUMP JUMPDEST PUSH2 0xF59 DUP3 DUP3 PUSH2 0x902 JUMP JUMPDEST ISZERO PUSH2 0x6C4 JUMPI PUSH1 0x0 DUP3 DUP2 MSTORE PUSH1 0x20 DUP2 DUP2 MSTORE PUSH1 0x40 DUP1 DUP4 KECCAK256 PUSH1 0x1 PUSH1 0x1 PUSH1 0xA0 SHL SUB DUP6 AND DUP1 DUP6 MSTORE SWAP3 MSTORE DUP1 DUP4 KECCAK256 DUP1 SLOAD PUSH1 0xFF NOT AND SWAP1 SSTORE MLOAD CALLER SWAP3 DUP6 SWAP2 PUSH32 0xF6391F5C32D9C69D2A47EA670B442974B53935D1EDC7FD64EB21E047A839171B SWAP2 SWAP1 LOG4 POP POP JUMP JUMPDEST PUSH1 0x60 PUSH1 0x0 PUSH2 0xFC3 DUP4 PUSH1 0x2 PUSH2 0x18B1 JUMP JUMPDEST PUSH2 0xFCE SWAP1 PUSH1 0x2 PUSH2 0x180D JUMP JUMPDEST PUSH8 0xFFFFFFFFFFFFFFFF DUP2 GT ISZERO PUSH2 0xFE6 JUMPI PUSH2 0xFE6 PUSH2 0x18D0 JUMP JUMPDEST PUSH1 0x40 MLOAD SWAP1 DUP1 DUP3 MSTORE DUP1 PUSH1 0x1F ADD PUSH1 0x1F NOT AND PUSH1 0x20 ADD DUP3 ADD PUSH1 0x40 MSTORE DUP1 ISZERO PUSH2 0x1010 JUMPI PUSH1 0x20 DUP3 ADD DUP2 DUP1 CALLDATASIZE DUP4 CALLDATACOPY ADD SWAP1 POP JUMPDEST POP SWAP1 POP PUSH1 0x3 PUSH1 0xFC SHL DUP2 PUSH1 0x0 DUP2 MLOAD DUP2 LT PUSH2 0x102B JUMPI PUSH2 0x102B PUSH2 0x154E JUMP JUMPDEST PUSH1 0x20 ADD ADD SWAP1 PUSH1 0x1 PUSH1 0x1 PUSH1 0xF8 SHL SUB NOT AND SWAP1 DUP2 PUSH1 0x0 BYTE SWAP1 MSTORE8 POP PUSH1 0xF PUSH1 0xFB SHL DUP2 PUSH1 0x1 DUP2 MLOAD DUP2 LT PUSH2 0x105A JUMPI PUSH2 0x105A PUSH2 0x154E JUMP JUMPDEST PUSH1 0x20 ADD ADD SWAP1 PUSH1 0x1 PUSH1 0x1 PUSH1 0xF8 SHL SUB NOT AND SWAP1 DUP2 PUSH1 0x0 BYTE SWAP1 MSTORE8 POP PUSH1 0x0 PUSH2 0x107E DUP5 PUSH1 0x2 PUSH2 0x18B1 JUMP JUMPDEST PUSH2 0x1089 SWAP1 PUSH1 0x1 PUSH2 0x180D JUMP JUMPDEST SWAP1 POP JUMPDEST PUSH1 0x1 DUP2 GT ISZERO PUSH2 0x1101 JUMPI PUSH16 0x181899199A1A9B1B9C1CB0B131B232B3 PUSH1 0x81 SHL DUP6 PUSH1 0xF AND PUSH1 0x10 DUP2 LT PUSH2 0x10BD JUMPI PUSH2 0x10BD PUSH2 0x154E JUMP JUMPDEST BYTE PUSH1 0xF8 SHL DUP3 DUP3 DUP2 MLOAD DUP2 LT PUSH2 0x10D3 JUMPI PUSH2 0x10D3 PUSH2 0x154E JUMP JUMPDEST PUSH1 0x20 ADD ADD SWAP1 PUSH1 0x1 PUSH1 0x1 PUSH1 0xF8 SHL SUB NOT AND SWAP1 DUP2 PUSH1 0x0 BYTE SWAP1 MSTORE8 POP PUSH1 0x4 SWAP5 SWAP1 SWAP5 SHR SWAP4 PUSH2 0x10FA DUP2 PUSH2 0x18E6 JUMP JUMPDEST SWAP1 POP PUSH2 0x108C JUMP JUMPDEST POP DUP4 ISZERO PUSH2 0x5FA JUMPI PUSH1 0x40 MLOAD PUSH3 0x461BCD PUSH1 0xE5 SHL DUP2 MSTORE PUSH1 0x20 PUSH1 0x4 DUP3 ADD DUP2 SWAP1 MSTORE PUSH1 0x24 DUP3 ADD MSTORE PUSH32 0x537472696E67733A20686578206C656E67746820696E73756666696369656E74 PUSH1 0x44 DUP3 ADD MSTORE PUSH1 0x64 ADD PUSH2 0x6B1 JUMP JUMPDEST DUP1 CALLDATALOAD PUSH1 0x1 PUSH1 0x1 PUSH1 0xA0 SHL SUB DUP2 AND DUP2 EQ PUSH2 0x1167 JUMPI PUSH1 0x0 DUP1 REVERT JUMPDEST SWAP2 SWAP1 POP JUMP JUMPDEST PUSH1 0x0 DUP1 DUP4 PUSH1 0x1F DUP5 ADD SLT PUSH2 0x117E JUMPI PUSH1 0x0 DUP1 REVERT JUMPDEST POP DUP2 CALLDATALOAD PUSH8 0xFFFFFFFFFFFFFFFF DUP2 GT ISZERO PUSH2 0x1196 JUMPI PUSH1 0x0 DUP1 REVERT JUMPDEST PUSH1 0x20 DUP4 ADD SWAP2 POP DUP4 PUSH1 0x20 DUP3 DUP6 ADD ADD GT ISZERO PUSH2 0x11AE JUMPI PUSH1 0x0 DUP1 REVERT JUMPDEST SWAP3 POP SWAP3 SWAP1 POP JUMP JUMPDEST PUSH1 0x0 DUP1 PUSH1 0x0 DUP1 PUSH1 0x0 DUP1 PUSH1 0x0 PUSH1 0xC0 DUP9 DUP11 SUB SLT ISZERO PUSH2 0x11D0 JUMPI PUSH1 0x0 DUP1 REVERT JUMPDEST PUSH2 0x11D9 DUP9 PUSH2 0x1150 JUMP JUMPDEST SWAP7 POP PUSH1 0x20 DUP9 ADD CALLDATALOAD SWAP6 POP PUSH1 0x40 DUP9 ADD CALLDATALOAD PUSH8 0xFFFFFFFFFFFFFFFF DUP2 GT ISZERO PUSH2 0x11FC JUMPI PUSH1 0x0 DUP1 REVERT JUMPDEST PUSH2 0x1208 DUP11 DUP3 DUP12 ADD PUSH2 0x116C JUMP JUMPDEST SWAP9 SWAP12 SWAP8 SWAP11 POP SWAP9 PUSH1 0x60 DUP2 ADD CALLDATALOAD SWAP8 PUSH1 0x80 DUP3 ADD CALLDATALOAD SWAP8 POP PUSH1 0xA0 SWAP1 SWAP2 ADD CALLDATALOAD SWAP6 POP SWAP4 POP POP POP POP JUMP JUMPDEST PUSH1 0x0 PUSH1 0x20 DUP3 DUP5 SUB SLT ISZERO PUSH2 0x123C JUMPI PUSH1 0x0 DUP1 REVERT JUMPDEST DUP2 CALLDATALOAD PUSH1 0x1 PUSH1 0x1 PUSH1 0xE0 SHL SUB NOT DUP2 AND DUP2 EQ PUSH2 0x5FA JUMPI PUSH1 0x0 DUP1 REVERT JUMPDEST PUSH1 0x0 DUP1 PUSH1 0x0 DUP1 PUSH1 0x0 DUP1 PUSH1 0xA0 DUP8 DUP10 SUB SLT ISZERO PUSH2 0x126D JUMPI PUSH1 0x0 DUP1 REVERT JUMPDEST PUSH2 0x1276 DUP8 PUSH2 0x1150 JUMP JUMPDEST SWAP6 POP PUSH1 0x20 DUP8 ADD CALLDATALOAD SWAP5 POP PUSH1 0x40 DUP8 ADD CALLDATALOAD PUSH8 0xFFFFFFFFFFFFFFFF DUP2 GT ISZERO PUSH2 0x1299 JUMPI PUSH1 0x0 DUP1 REVERT JUMPDEST PUSH2 0x12A5 DUP10 DUP3 DUP11 ADD PUSH2 0x116C JUMP JUMPDEST SWAP8 SWAP11 SWAP7 SWAP10 POP SWAP8 PUSH1 0x60 DUP2 ADD CALLDATALOAD SWAP7 PUSH1 0x80 SWAP1 SWAP2 ADD CALLDATALOAD SWAP6 POP SWAP4 POP POP POP POP JUMP JUMPDEST PUSH1 0x0 PUSH1 0x20 DUP3 DUP5 SUB SLT ISZERO PUSH2 0x12D2 JUMPI PUSH1 0x0 DUP1 REVERT JUMPDEST POP CALLDATALOAD SWAP2 SWAP1 POP JUMP JUMPDEST PUSH1 0x0 DUP1 PUSH1 0x40 DUP4 DUP6 SUB SLT ISZERO PUSH2 0x12EC JUMPI PUSH1 0x0 DUP1 REVERT JUMPDEST DUP3 CALLDATALOAD SWAP2 POP PUSH2 0x12FC PUSH1 0x20 DUP5 ADD PUSH2 0x1150 JUMP JUMPDEST SWAP1 POP SWAP3 POP SWAP3 SWAP1 POP JUMP JUMPDEST PUSH1 0x0 DUP1 DUP4 PUSH1 0x1F DUP5 ADD SLT PUSH2 0x1317 JUMPI PUSH1 0x0 DUP1 REVERT JUMPDEST POP DUP2 CALLDATALOAD PUSH8 0xFFFFFFFFFFFFFFFF DUP2 GT ISZERO PUSH2 0x132F JUMPI PUSH1 0x0 DUP1 REVERT JUMPDEST PUSH1 0x20 DUP4 ADD SWAP2 POP DUP4 PUSH1 0x20 DUP3 PUSH1 0x5 SHL DUP6 ADD ADD GT ISZERO PUSH2 0x11AE JUMPI PUSH1 0x0 DUP1 REVERT JUMPDEST PUSH1 0x0 DUP1 PUSH1 0x0 DUP1 PUSH1 0x0 DUP1 PUSH1 0x0 DUP1 PUSH1 0x0 PUSH1 0xC0 DUP11 DUP13 SUB SLT ISZERO PUSH2 0x1368 JUMPI PUSH1 0x0 DUP1 REVERT JUMPDEST DUP10 CALLDATALOAD PUSH8 0xFFFFFFFFFFFFFFFF DUP1 DUP3 GT ISZERO PUSH2 0x1380 JUMPI PUSH1 0x0 DUP1 REVERT JUMPDEST PUSH2 0x138C DUP14 DUP4 DUP15 ADD PUSH2 0x1305 JUMP JUMPDEST SWAP1 SWAP12 POP SWAP10 POP PUSH1 0x20 DUP13 ADD CALLDATALOAD SWAP2 POP DUP1 DUP3 GT ISZERO PUSH2 0x13A5 JUMPI PUSH1 0x0 DUP1 REVERT JUMPDEST PUSH2 0x13B1 DUP14 DUP4 DUP15 ADD PUSH2 0x1305 JUMP JUMPDEST SWAP1 SWAP10 POP SWAP8 POP PUSH1 0x40 DUP13 ADD CALLDATALOAD SWAP2 POP DUP1 DUP3 GT ISZERO PUSH2 0x13CA JUMPI PUSH1 0x0 DUP1 REVERT JUMPDEST POP PUSH2 0x13D7 DUP13 DUP3 DUP14 ADD PUSH2 0x1305 JUMP JUMPDEST SWAP11 SWAP14 SWAP10 SWAP13 POP SWAP8 SWAP11 SWAP7 SWAP10 SWAP8 SWAP9 PUSH1 0x60 DUP9 ADD CALLDATALOAD SWAP8 PUSH1 0x80 DUP2 ADD CALLDATALOAD SWAP8 POP PUSH1 0xA0 ADD CALLDATALOAD SWAP6 POP SWAP4 POP POP POP POP JUMP JUMPDEST PUSH1 0x0 DUP1 PUSH1 0x0 DUP1 PUSH1 0x0 DUP1 PUSH1 0x0 DUP1 PUSH1 0xA0 DUP10 DUP12 SUB SLT ISZERO PUSH2 0x1418 JUMPI PUSH1 0x0 DUP1 REVERT JUMPDEST DUP9 CALLDATALOAD PUSH8 0xFFFFFFFFFFFFFFFF DUP1 DUP3 GT ISZERO PUSH2 0x1430 JUMPI PUSH1 0x0 DUP1 REVERT JUMPDEST PUSH2 0x143C DUP13 DUP4 DUP14 ADD PUSH2 0x1305 JUMP JUMPDEST SWAP1 SWAP11 POP SWAP9 POP PUSH1 0x20 DUP12 ADD CALLDATALOAD SWAP2 POP DUP1 DUP3 GT ISZERO PUSH2 0x1455 JUMPI PUSH1 0x0 DUP1 REVERT JUMPDEST PUSH2 0x1461 DUP13 DUP4 DUP14 ADD PUSH2 0x1305 JUMP JUMPDEST SWAP1 SWAP9 POP SWAP7 POP PUSH1 0x40 DUP12 ADD CALLDATALOAD SWAP2 POP DUP1 DUP3 GT ISZERO PUSH2 0x147A JUMPI PUSH1 0x0 DUP1 REVERT JUMPDEST POP PUSH2 0x1487 DUP12 DUP3 DUP13 ADD PUSH2 0x1305 JUMP JUMPDEST SWAP10 SWAP13 SWAP9 SWAP12 POP SWAP7 SWAP10 SWAP6 SWAP9 SWAP7 SWAP8 PUSH1 0x60 DUP8 ADD CALLDATALOAD SWAP7 PUSH1 0x80 ADD CALLDATALOAD SWAP6 POP SWAP4 POP POP POP POP JUMP JUMPDEST DUP2 DUP4 MSTORE DUP2 DUP2 PUSH1 0x20 DUP6 ADD CALLDATACOPY POP PUSH1 0x0 DUP3 DUP3 ADD PUSH1 0x20 SWAP1 DUP2 ADD SWAP2 SWAP1 SWAP2 MSTORE PUSH1 0x1F SWAP1 SWAP2 ADD PUSH1 0x1F NOT AND SWAP1 SWAP2 ADD ADD SWAP1 JUMP JUMPDEST PUSH1 0x1 DUP1 PUSH1 0xA0 SHL SUB DUP8 AND DUP2 MSTORE DUP6 PUSH1 0x20 DUP3 ADD MSTORE PUSH1 0xA0 PUSH1 0x40 DUP3 ADD MSTORE PUSH1 0x0 PUSH2 0x14F6 PUSH1 0xA0 DUP4 ADD DUP7 DUP9 PUSH2 0x14A5 JUMP JUMPDEST PUSH1 0x60 DUP4 ADD SWAP5 SWAP1 SWAP5 MSTORE POP PUSH1 0x80 ADD MSTORE SWAP5 SWAP4 POP POP POP POP JUMP JUMPDEST PUSH1 0x20 DUP1 DUP3 MSTORE PUSH1 0x23 SWAP1 DUP3 ADD MSTORE PUSH32 0x54696D656C6F636B436F6E74726F6C6C65723A206C656E677468206D69736D61 PUSH1 0x40 DUP3 ADD MSTORE PUSH3 0xE8C6D PUSH1 0xEB SHL PUSH1 0x60 DUP3 ADD MSTORE PUSH1 0x80 ADD SWAP1 JUMP JUMPDEST PUSH4 0x4E487B71 PUSH1 0xE0 SHL PUSH1 0x0 MSTORE PUSH1 0x32 PUSH1 0x4 MSTORE PUSH1 0x24 PUSH1 0x0 REVERT JUMPDEST PUSH1 0x0 PUSH1 0x20 DUP3 DUP5 SUB SLT ISZERO PUSH2 0x1576 JUMPI PUSH1 0x0 DUP1 REVERT JUMPDEST PUSH2 0x5FA DUP3 PUSH2 0x1150 JUMP JUMPDEST PUSH1 0x0 DUP1 DUP4 CALLDATALOAD PUSH1 0x1E NOT DUP5 CALLDATASIZE SUB ADD DUP2 SLT PUSH2 0x1596 JUMPI PUSH1 0x0 DUP1 REVERT JUMPDEST DUP4 ADD DUP1 CALLDATALOAD SWAP2 POP PUSH8 0xFFFFFFFFFFFFFFFF DUP3 GT ISZERO PUSH2 0x15B1 JUMPI PUSH1 0x0 DUP1 REVERT JUMPDEST PUSH1 0x20 ADD SWAP2 POP CALLDATASIZE DUP2 SWAP1 SUB DUP3 SGT ISZERO PUSH2 0x11AE JUMPI PUSH1 0x0 DUP1 REVERT JUMPDEST PUSH4 0x4E487B71 PUSH1 0xE0 SHL PUSH1 0x0 MSTORE PUSH1 0x11 PUSH1 0x4 MSTORE PUSH1 0x24 PUSH1 0x0 REVERT JUMPDEST PUSH1 0x0 PUSH1 0x1 DUP3 ADD PUSH2 0x15EE JUMPI PUSH2 0x15EE PUSH2 0x15C6 JUMP JUMPDEST POP PUSH1 0x1 ADD SWAP1 JUMP JUMPDEST PUSH1 0x0 DUP4 DUP4 DUP6 MSTORE PUSH1 0x20 DUP1 DUP7 ADD SWAP6 POP DUP1 DUP6 PUSH1 0x5 SHL DUP4 ADD ADD DUP5 PUSH1 0x0 JUMPDEST DUP8 DUP2 LT ISZERO PUSH2 0x167D JUMPI DUP5 DUP4 SUB PUSH1 0x1F NOT ADD DUP10 MSTORE DUP2 CALLDATALOAD CALLDATASIZE DUP9 SWAP1 SUB PUSH1 0x1E NOT ADD DUP2 SLT PUSH2 0x1634 JUMPI PUSH1 0x0 DUP1 REVERT JUMPDEST DUP8 ADD DUP1 CALLDATALOAD PUSH8 0xFFFFFFFFFFFFFFFF DUP2 GT ISZERO PUSH2 0x164D JUMPI PUSH1 0x0 DUP1 REVERT JUMPDEST DUP1 CALLDATASIZE SUB DUP10 SGT ISZERO PUSH2 0x165C JUMPI PUSH1 0x0 DUP1 REVERT JUMPDEST PUSH2 0x1669 DUP6 DUP3 DUP9 DUP6 ADD PUSH2 0x14A5 JUMP JUMPDEST SWAP11 DUP7 ADD SWAP11 SWAP5 POP POP POP SWAP1 DUP4 ADD SWAP1 PUSH1 0x1 ADD PUSH2 0x160E JUMP JUMPDEST POP SWAP1 SWAP8 SWAP7 POP POP POP POP POP POP POP JUMP JUMPDEST PUSH1 0xA0 DUP1 DUP3 MSTORE DUP2 ADD DUP9 SWAP1 MSTORE PUSH1 0x0 DUP10 PUSH1 0xC0 DUP4 ADD DUP3 JUMPDEST DUP12 DUP2 LT ISZERO PUSH2 0x16CB JUMPI PUSH1 0x1 PUSH1 0x1 PUSH1 0xA0 SHL SUB PUSH2 0x16B6 DUP5 PUSH2 0x1150 JUMP JUMPDEST AND DUP3 MSTORE PUSH1 0x20 SWAP3 DUP4 ADD SWAP3 SWAP1 SWAP2 ADD SWAP1 PUSH1 0x1 ADD PUSH2 0x169D JUMP JUMPDEST POP DUP4 DUP2 SUB PUSH1 0x20 DUP6 ADD MSTORE DUP9 DUP2 MSTORE PUSH1 0x1 PUSH1 0x1 PUSH1 0xFB SHL SUB DUP10 GT ISZERO PUSH2 0x16EB JUMPI PUSH1 0x0 DUP1 REVERT JUMPDEST DUP9 PUSH1 0x5 SHL SWAP2 POP DUP2 DUP11 PUSH1 0x20 DUP4 ADD CALLDATACOPY DUP2 DUP2 ADD SWAP2 POP POP PUSH1 0x20 DUP2 ADD PUSH1 0x0 DUP2 MSTORE PUSH1 0x20 DUP5 DUP4 SUB ADD PUSH1 0x40 DUP6 ADD MSTORE PUSH2 0x171C DUP2 DUP9 DUP11 PUSH2 0x15F5 JUMP JUMPDEST PUSH1 0x60 DUP6 ADD SWAP7 SWAP1 SWAP7 MSTORE POP POP POP PUSH1 0x80 ADD MSTORE SWAP7 SWAP6 POP POP POP POP POP POP JUMP JUMPDEST PUSH1 0x0 JUMPDEST DUP4 DUP2 LT ISZERO PUSH2 0x1750 JUMPI DUP2 DUP2 ADD MLOAD DUP4 DUP3 ADD MSTORE PUSH1 0x20 ADD PUSH2 0x1738 JUMP JUMPDEST DUP4 DUP2 GT ISZERO PUSH2 0x175F JUMPI PUSH1 0x0 DUP5 DUP5 ADD MSTORE JUMPDEST POP POP POP POP JUMP JUMPDEST PUSH32 0x416363657373436F6E74726F6C3A206163636F756E7420000000000000000000 DUP2 MSTORE PUSH1 0x0 DUP4 MLOAD PUSH2 0x179D DUP2 PUSH1 0x17 DUP6 ADD PUSH1 0x20 DUP9 ADD PUSH2 0x1735 JUMP JUMPDEST PUSH17 0x1034B99036B4B9B9B4B733903937B6329 PUSH1 0x7D SHL PUSH1 0x17 SWAP2 DUP5 ADD SWAP2 DUP3 ADD MSTORE DUP4 MLOAD PUSH2 0x17CE DUP2 PUSH1 0x28 DUP5 ADD PUSH1 0x20 DUP9 ADD PUSH2 0x1735 JUMP JUMPDEST ADD PUSH1 0x28 ADD SWAP5 SWAP4 POP POP POP POP JUMP JUMPDEST PUSH1 0x20 DUP2 MSTORE PUSH1 0x0 DUP3 MLOAD DUP1 PUSH1 0x20 DUP5 ADD MSTORE PUSH2 0x17F9 DUP2 PUSH1 0x40 DUP6 ADD PUSH1 0x20 DUP8 ADD PUSH2 0x1735 JUMP JUMPDEST PUSH1 0x1F ADD PUSH1 0x1F NOT AND SWAP2 SWAP1 SWAP2 ADD PUSH1 0x40 ADD SWAP3 SWAP2 POP POP JUMP JUMPDEST PUSH1 0x0 DUP3 NOT DUP3 GT ISZERO PUSH2 0x1820 JUMPI PUSH2 0x1820 PUSH2 0x15C6 JUMP JUMPDEST POP ADD SWAP1 JUMP JUMPDEST PUSH1 0x20 DUP1 DUP3 MSTORE PUSH1 0x2A SWAP1 DUP3 ADD MSTORE PUSH32 0x54696D656C6F636B436F6E74726F6C6C65723A206F7065726174696F6E206973 PUSH1 0x40 DUP3 ADD MSTORE PUSH10 0x206E6F74207265616479 PUSH1 0xB0 SHL PUSH1 0x60 DUP3 ADD MSTORE PUSH1 0x80 ADD SWAP1 JUMP JUMPDEST DUP2 DUP4 DUP3 CALLDATACOPY PUSH1 0x0 SWAP2 ADD SWAP1 DUP2 MSTORE SWAP2 SWAP1 POP JUMP JUMPDEST PUSH1 0x1 DUP1 PUSH1 0xA0 SHL SUB DUP6 AND DUP2 MSTORE DUP4 PUSH1 0x20 DUP3 ADD MSTORE PUSH1 0x60 PUSH1 0x40 DUP3 ADD MSTORE PUSH1 0x0 PUSH2 0x18A7 PUSH1 0x60 DUP4 ADD DUP5 DUP7 PUSH2 0x14A5 JUMP JUMPDEST SWAP7 SWAP6 POP POP POP POP POP POP JUMP JUMPDEST PUSH1 0x0 DUP2 PUSH1 0x0 NOT DIV DUP4 GT DUP3 ISZERO ISZERO AND ISZERO PUSH2 0x18CB JUMPI PUSH2 0x18CB PUSH2 0x15C6 JUMP JUMPDEST POP MUL SWAP1 JUMP JUMPDEST PUSH4 0x4E487B71 PUSH1 0xE0 SHL PUSH1 0x0 MSTORE PUSH1 0x41 PUSH1 0x4 MSTORE PUSH1 0x24 PUSH1 0x0 REVERT JUMPDEST PUSH1 0x0 DUP2 PUSH2 0x18F5 JUMPI PUSH2 0x18F5 PUSH2 0x15C6 JUMP JUMPDEST POP PUSH1 0x0 NOT ADD SWAP1 JUMP INVALID 0xB0 SWAP11 0xA5 0xAE 0xB3 PUSH17 0x2CFD50B6B62BC4532604938F21248A27A1 0xD5 0xCA PUSH20 0x6082B6819CC1A264697066735822122045528FF2 0x22 0xA5 PUSH32 0x1333C29A0D5EEF3A70B69D5FF3D7B5389FEC4A7EF4F2BD8C5364736F6C634300 ADDMOD 0xD STOP CALLER ",
  "sha1": "a3f0841399137ff495253f8f1b0dc8ac11e5061a",
  "source": "// SPDX-License-Identifier: MIT\n// OpenZeppelin Contracts v4.4.1 (governance/TimelockController.sol)\n\npragma solidity ^0.8.0;\n\nimport \"../access/AccessControl.sol\";\n\n/**\n * @dev Contract module which acts as a timelocked controller. When set as the\n * owner of an `Ownable` smart contract, it enforces a timelock on all\n * `onlyOwner` maintenance operations. This gives time for users of the\n * controlled contract to exit before a potentially dangerous maintenance\n * operation is applied.\n *\n * By default, this contract is self administered, meaning administration tasks\n * have to go through the timelock process. The proposer (resp executor) role\n * is in charge of proposing (resp executing) operations. A common use case is\n * to position this {TimelockController} as the owner of a smart contract, with\n * a multisig or a DAO as the sole proposer.\n *\n * _Available since v3.3._\n */\ncontract TimelockController is AccessControl {\n    bytes32 public constant TIMELOCK_ADMIN_ROLE = keccak256(\"TIMELOCK_ADMIN_ROLE\");\n    bytes32 public constant PROPOSER_ROLE = keccak256(\"PROPOSER_ROLE\");\n    bytes32 public constant EXECUTOR_ROLE = keccak256(\"EXECUTOR_ROLE\");\n    uint256 internal constant _DONE_TIMESTAMP = uint256(1);\n\n    mapping(bytes32 => uint256) private _timestamps;\n    uint256 private _minDelay;\n\n    /**\n     * @dev Emitted when a call is scheduled as part of operation `id`.\n     */\n    event CallScheduled(\n        bytes32 indexed id,\n        uint256 indexed index,\n        address target,\n        uint256 value,\n        bytes data,\n        bytes32 predecessor,\n        uint256 delay\n    );\n\n    /**\n     * @dev Emitted when a call is performed as part of operation `id`.\n     */\n    event CallExecuted(bytes32 indexed id, uint256 indexed index, address target, uint256 value, bytes data);\n\n    /**\n     * @dev Emitted when operation `id` is cancelled.\n     */\n    event Cancelled(bytes32 indexed id);\n\n    /**\n     * @dev Emitted when the minimum delay for future operations is modified.\n     */\n    event MinDelayChange(uint256 oldDuration, uint256 newDuration);\n\n    /**\n     * @dev Initializes the contract with a given `minDelay`.\n     */\n    constructor(\n        uint256 minDelay,\n        address[] memory proposers,\n        address[] memory executors\n    ) {\n        _setRoleAdmin(TIMELOCK_ADMIN_ROLE, TIMELOCK_ADMIN_ROLE);\n        _setRoleAdmin(PROPOSER_ROLE, TIMELOCK_ADMIN_ROLE);\n        _setRoleAdmin(EXECUTOR_ROLE, TIMELOCK_ADMIN_ROLE);\n\n        // deployer + self administration\n        _setupRole(TIMELOCK_ADMIN_ROLE, _msgSender());\n        _setupRole(TIMELOCK_ADMIN_ROLE, address(this));\n\n        // register proposers\n        for (uint256 i = 0; i < proposers.length; ++i) {\n            _setupRole(PROPOSER_ROLE, proposers[i]);\n        }\n\n        // register executors\n        for (uint256 i = 0; i < executors.length; ++i) {\n            _setupRole(EXECUTOR_ROLE, executors[i]);\n        }\n\n        _minDelay = minDelay;\n        emit MinDelayChange(0, minDelay);\n    }\n\n    /**\n     * @dev Modifier to make a function callable only by a certain role. In\n     * addition to checking the sender's role, `address(0)` 's role is also\n     * considered. Granting a role to `address(0)` is equivalent to enabling\n     * this role for everyone.\n     */\n    modifier onlyRoleOrOpenRole(bytes32 role) {\n        if (!hasRole(role, address(0))) {\n            _checkRole(role, _msgSender());\n        }\n        _;\n    }\n\n    /**\n     * @dev Contract might receive/hold ETH as part of the maintenance process.\n     */\n    receive() external payable {}\n\n    /**\n     * @dev Returns whether an id correspond to a registered operation. This\n     * includes both Pending, Ready and Done operations.\n     */\n    function isOperation(bytes32 id) public view virtual returns (bool pending) {\n        return getTimestamp(id) > 0;\n    }\n\n    /**\n     * @dev Returns whether an operation is pending or not.\n     */\n    function isOperationPending(bytes32 id) public view virtual returns (bool pending) {\n        return getTimestamp(id) > _DONE_TIMESTAMP;\n    }\n\n    /**\n     * @dev Returns whether an operation is ready or not.\n     */\n    function isOperationReady(bytes32 id) public view virtual returns (bool ready) {\n        uint256 timestamp = getTimestamp(id);\n        return timestamp > _DONE_TIMESTAMP && timestamp <= block.timestamp;\n    }\n\n    /**\n     * @dev Returns whether an operation is done or not.\n     */\n    function isOperationDone(bytes32 id) public view virtual returns (bool done) {\n        return getTimestamp(id) == _DONE_TIMESTAMP;\n    }\n\n    /**\n     * @dev Returns the timestamp at with an operation becomes ready (0 for\n     * unset operations, 1 for done operations).\n     */\n    function getTimestamp(bytes32 id) public view virtual returns (uint256 timestamp) {\n        return _timestamps[id];\n    }\n\n    /**\n     * @dev Returns the minimum delay for an operation to become valid.\n     *\n     * This value can be changed by executing an operation that calls `updateDelay`.\n     */\n    function getMinDelay() public view virtual returns (uint256 duration) {\n        return _minDelay;\n    }\n\n    /**\n     * @dev Returns the identifier of an operation containing a single\n     * transaction.\n     */\n    function hashOperation(\n        address target,\n        uint256 value,\n        bytes calldata data,\n        bytes32 predecessor,\n        bytes32 salt\n    ) public pure virtual returns (bytes32 hash) {\n        return keccak256(abi.encode(target, value, data, predecessor, salt));\n    }\n\n    /**\n     * @dev Returns the identifier of an operation containing a batch of\n     * transactions.\n     */\n    function hashOperationBatch(\n        address[] calldata targets,\n        uint256[] calldata values,\n        bytes[] calldata datas,\n        bytes32 predecessor,\n        bytes32 salt\n    ) public pure virtual returns (bytes32 hash) {\n        return keccak256(abi.encode(targets, values, datas, predecessor, salt));\n    }\n\n    /**\n     * @dev Schedule an operation containing a single transaction.\n     *\n     * Emits a {CallScheduled} event.\n     *\n     * Requirements:\n     *\n     * - the caller must have the 'proposer' role.\n     */\n    function schedule(\n        address target,\n        uint256 value,\n        bytes calldata data,\n        bytes32 predecessor,\n        bytes32 salt,\n        uint256 delay\n    ) public virtual onlyRole(PROPOSER_ROLE) {\n        bytes32 id = hashOperation(target, value, data, predecessor, salt);\n        _schedule(id, delay);\n        emit CallScheduled(id, 0, target, value, data, predecessor, delay);\n    }\n\n    /**\n     * @dev Schedule an operation containing a batch of transactions.\n     *\n     * Emits one {CallScheduled} event per transaction in the batch.\n     *\n     * Requirements:\n     *\n     * - the caller must have the 'proposer' role.\n     */\n    function scheduleBatch(\n        address[] calldata targets,\n        uint256[] calldata values,\n        bytes[] calldata datas,\n        bytes32 predecessor,\n        bytes32 salt,\n        uint256 delay\n    ) public virtual onlyRole(PROPOSER_ROLE) {\n        require(targets.length == values.length, \"TimelockController: length mismatch\");\n        require(targets.length == datas.length, \"TimelockController: length mismatch\");\n\n        bytes32 id = hashOperationBatch(targets, values, datas, predecessor, salt);\n        _schedule(id, delay);\n        for (uint256 i = 0; i < targets.length; ++i) {\n            emit CallScheduled(id, i, targets[i], values[i], datas[i], predecessor, delay);\n        }\n    }\n\n    /**\n     * @dev Schedule an operation that is to becomes valid after a given delay.\n     */\n    function _schedule(bytes32 id, uint256 delay) private {\n        require(!isOperation(id), \"TimelockController: operation already scheduled\");\n        require(delay >= getMinDelay(), \"TimelockController: insufficient delay\");\n        _timestamps[id] = block.timestamp + delay;\n    }\n\n    /**\n     * @dev Cancel an operation.\n     *\n     * Requirements:\n     *\n     * - the caller must have the 'proposer' role.\n     */\n    function cancel(bytes32 id) public virtual onlyRole(PROPOSER_ROLE) {\n        require(isOperationPending(id), \"TimelockController: operation cannot be cancelled\");\n        delete _timestamps[id];\n\n        emit Cancelled(id);\n    }\n\n    /**\n     * @dev Execute an (ready) operation containing a single transaction.\n     *\n     * Emits a {CallExecuted} event.\n     *\n     * Requirements:\n     *\n     * - the caller must have the 'executor' role.\n     */\n    function execute(\n        address target,\n        uint256 value,\n        bytes calldata data,\n        bytes32 predecessor,\n        bytes32 salt\n    ) public payable virtual onlyRoleOrOpenRole(EXECUTOR_ROLE) {\n        bytes32 id = hashOperation(target, value, data, predecessor, salt);\n        _beforeCall(id, predecessor);\n        _call(id, 0, target, value, data);\n        _afterCall(id);\n    }\n\n    /**\n     * @dev Execute an (ready) operation containing a batch of transactions.\n     *\n     * Emits one {CallExecuted} event per transaction in the batch.\n     *\n     * Requirements:\n     *\n     * - the caller must have the 'executor' role.\n     */\n    function executeBatch(\n        address[] calldata targets,\n        uint256[] calldata values,\n        bytes[] calldata datas,\n        bytes32 predecessor,\n        bytes32 salt\n    ) public payable virtual onlyRoleOrOpenRole(EXECUTOR_ROLE) {\n        require(targets.length == values.length, \"TimelockController: length mismatch\");\n        require(targets.length == datas.length, \"TimelockController: length mismatch\");\n\n        bytes32 id = hashOperationBatch(targets, values, datas, predecessor, salt);\n        _beforeCall(id, predecessor);\n        for (uint256 i = 0; i < targets.length; ++i) {\n            _call(id, i, targets[i], values[i], datas[i]);\n        }\n        _afterCall(id);\n    }\n\n    /**\n     * @dev Checks before execution of an operation's calls.\n     */\n    function _beforeCall(bytes32 id, bytes32 predecessor) private view {\n        require(isOperationReady(id), \"TimelockController: operation is not ready\");\n        require(predecessor == bytes32(0) || isOperationDone(predecessor), \"TimelockController: missing dependency\");\n    }\n\n    /**\n     * @dev Checks after execution of an operation's calls.\n     */\n    function _afterCall(bytes32 id) private {\n        require(isOperationReady(id), \"TimelockController: operation is not ready\");\n        _timestamps[id] = _DONE_TIMESTAMP;\n    }\n\n    /**\n     * @dev Execute an operation's call.\n     *\n     * Emits a {CallExecuted} event.\n     */\n    function _call(\n        bytes32 id,\n        uint256 index,\n        address target,\n        uint256 value,\n        bytes calldata data\n    ) private {\n        (bool success, ) = target.call{value: value}(data);\n        require(success, \"TimelockController: underlying transaction reverted\");\n\n        emit CallExecuted(id, index, target, value, data);\n    }\n\n    /**\n     * @dev Changes the minimum timelock duration for future operations.\n     *\n     * Emits a {MinDelayChange} event.\n     *\n     * Requirements:\n     *\n     * - the caller must be the timelock itself. This can only be achieved by scheduling and later executing\n     * an operation where the timelock is the target and the data is the ABI-encoded call to this function.\n     */\n    function updateDelay(uint256 newDelay) external virtual {\n        require(msg.sender == address(this), \"TimelockController: caller must be timelock\");\n        emit MinDelayChange(_minDelay, newDelay);\n        _minDelay = newDelay;\n    }\n}\n",
  "sourcePath": "C:/Users/Tarek M/.brownie/packages/OpenZeppelin/openzeppelin-contracts@4.5.0/contracts/governance/TimelockController.sol",
  "type": "contract"
}